{
  "_format": "hh-sol-artifact-1",
  "contractName": "Ecommarce",
  "sourceName": "contracts/Ecommarce.sol",
  "abi": [
    {
      "inputs": [],
      "stateMutability": "nonpayable",
      "type": "constructor"
    },
    {
      "inputs": [
        {
          "internalType": "uint256",
          "name": "_productId",
          "type": "uint256"
        },
        {
          "internalType": "address payable",
          "name": "_buyer",
          "type": "address"
        }
      ],
      "name": "OrderCancel",
      "outputs": [],
      "stateMutability": "nonpayable",
      "type": "function"
    },
    {
      "inputs": [
        {
          "internalType": "uint256",
          "name": "_productId",
          "type": "uint256"
        },
        {
          "internalType": "string",
          "name": "_deliveryAddress",
          "type": "string"
        },
        {
          "internalType": "uint256",
          "name": "_numberOfProducts",
          "type": "uint256"
        }
      ],
      "name": "buy",
      "outputs": [],
      "stateMutability": "payable",
      "type": "function"
    },
    {
      "inputs": [
        {
          "internalType": "uint256",
          "name": "_productId",
          "type": "uint256"
        }
      ],
      "name": "delivery",
      "outputs": [],
      "stateMutability": "payable",
      "type": "function"
    },
    {
      "inputs": [
        {
          "internalType": "address",
          "name": "",
          "type": "address"
        }
      ],
      "name": "deliveryLocation",
      "outputs": [
        {
          "internalType": "string",
          "name": "",
          "type": "string"
        }
      ],
      "stateMutability": "view",
      "type": "function"
    },
    {
      "inputs": [],
      "name": "endAt",
      "outputs": [
        {
          "internalType": "uint256",
          "name": "",
          "type": "uint256"
        }
      ],
      "stateMutability": "view",
      "type": "function"
    },
    {
      "inputs": [],
      "name": "listPrice",
      "outputs": [
        {
          "internalType": "uint256",
          "name": "",
          "type": "uint256"
        }
      ],
      "stateMutability": "view",
      "type": "function"
    },
    {
      "inputs": [],
      "name": "manager",
      "outputs": [
        {
          "internalType": "address payable",
          "name": "",
          "type": "address"
        }
      ],
      "stateMutability": "view",
      "type": "function"
    },
    {
      "inputs": [
        {
          "internalType": "address",
          "name": "",
          "type": "address"
        },
        {
          "internalType": "uint256",
          "name": "",
          "type": "uint256"
        }
      ],
      "name": "myCustomers",
      "outputs": [
        {
          "internalType": "address",
          "name": "",
          "type": "address"
        }
      ],
      "stateMutability": "view",
      "type": "function"
    },
    {
      "inputs": [
        {
          "internalType": "uint256",
          "name": "",
          "type": "uint256"
        }
      ],
      "name": "myProducts",
      "outputs": [
        {
          "internalType": "string",
          "name": "title",
          "type": "string"
        },
        {
          "internalType": "string",
          "name": "desc",
          "type": "string"
        },
        {
          "internalType": "uint256",
          "name": "price",
          "type": "uint256"
        },
        {
          "internalType": "uint256",
          "name": "productId",
          "type": "uint256"
        },
        {
          "internalType": "uint256",
          "name": "stocks",
          "type": "uint256"
        },
        {
          "internalType": "uint256",
          "name": "deliveryStart",
          "type": "uint256"
        },
        {
          "internalType": "uint256",
          "name": "deliveryEnd",
          "type": "uint256"
        },
        {
          "internalType": "address payable",
          "name": "seller",
          "type": "address"
        },
        {
          "internalType": "bool",
          "name": "delevered",
          "type": "bool"
        }
      ],
      "stateMutability": "view",
      "type": "function"
    },
    {
      "inputs": [
        {
          "internalType": "uint256",
          "name": "",
          "type": "uint256"
        }
      ],
      "name": "products",
      "outputs": [
        {
          "internalType": "string",
          "name": "title",
          "type": "string"
        },
        {
          "internalType": "string",
          "name": "desc",
          "type": "string"
        },
        {
          "internalType": "uint256",
          "name": "price",
          "type": "uint256"
        },
        {
          "internalType": "uint256",
          "name": "productId",
          "type": "uint256"
        },
        {
          "internalType": "uint256",
          "name": "stocks",
          "type": "uint256"
        },
        {
          "internalType": "uint256",
          "name": "deliveryStart",
          "type": "uint256"
        },
        {
          "internalType": "uint256",
          "name": "deliveryEnd",
          "type": "uint256"
        },
        {
          "internalType": "address payable",
          "name": "seller",
          "type": "address"
        },
        {
          "internalType": "bool",
          "name": "delevered",
          "type": "bool"
        }
      ],
      "stateMutability": "view",
      "type": "function"
    },
    {
      "inputs": [
        {
          "internalType": "address",
          "name": "",
          "type": "address"
        },
        {
          "internalType": "uint256",
          "name": "",
          "type": "uint256"
        }
      ],
      "name": "productsNumber",
      "outputs": [
        {
          "internalType": "uint256",
          "name": "",
          "type": "uint256"
        }
      ],
      "stateMutability": "view",
      "type": "function"
    },
    {
      "inputs": [
        {
          "internalType": "string",
          "name": "_title",
          "type": "string"
        },
        {
          "internalType": "string",
          "name": "_desc",
          "type": "string"
        },
        {
          "internalType": "uint256",
          "name": "_price",
          "type": "uint256"
        },
        {
          "internalType": "uint256",
          "name": "_stocks",
          "type": "uint256"
        }
      ],
      "name": "registerProduct",
      "outputs": [],
      "stateMutability": "payable",
      "type": "function"
    },
    {
      "inputs": [
        {
          "internalType": "address",
          "name": "_address",
          "type": "address"
        }
      ],
      "name": "showMyProducts",
      "outputs": [],
      "stateMutability": "nonpayable",
      "type": "function"
    },
    {
      "inputs": [
        {
          "internalType": "uint256",
          "name": "_productId",
          "type": "uint256"
        }
      ],
      "name": "showStockOfProduct",
      "outputs": [
        {
          "internalType": "uint256",
          "name": "",
          "type": "uint256"
        }
      ],
      "stateMutability": "view",
      "type": "function"
    },
    {
      "inputs": [
        {
          "internalType": "uint256",
          "name": "_day",
          "type": "uint256"
        }
      ],
      "name": "updateDeliveryDays",
      "outputs": [],
      "stateMutability": "nonpayable",
      "type": "function"
    }
  ],
  "bytecode": "0x608060405260016005556000600860146101000a81548160ff02191690831515021790555034801561003057600080fd5b5033600860006101000a81548173ffffffffffffffffffffffffffffffffffffffff021916908373ffffffffffffffffffffffffffffffffffffffff160217905550662386f26fc1000060048190555062093a80600381905550612b29806100996000396000f3fe6080604052600436106100e85760003560e01c80637acc0b201161008a578063a7157b1711610059578063a7157b171461031d578063c38f01aa14610346578063cc47f8bd14610362578063cec02c8f1461039f576100e8565b80637acc0b20146102475780637cc3ae8c1461028c5780637f4ed9a8146102b75780638b943c50146102e0576100e8565b806330c07aee116100c657806330c07aee1461016f578063481c6a75146101ac5780635cece25f146101d75780636eb588d91461021c576100e8565b80631144fd72146100ed57806313c21b78146101095780632cf8e48e14610132575b600080fd5b61010760048036038101906101029190611ea6565b6103bb565b005b34801561011557600080fd5b50610130600480360381019061012b9190611f31565b610591565b005b34801561013e57600080fd5b5061015960048036038101906101549190611f31565b610801565b6040516101669190611ff7565b60405180910390f35b34801561017b57600080fd5b5061019660048036038101906101919190612019565b6108a1565b6040516101a39190612068565b60405180910390f35b3480156101b857600080fd5b506101c16108ef565b6040516101ce91906120a4565b60405180910390f35b3480156101e357600080fd5b506101fe60048036038101906101f99190611ea6565b610915565b604051610213999897969594939291906120e9565b60405180910390f35b34801561022857600080fd5b50610231610ab0565b60405161023e9190612184565b60405180910390f35b34801561025357600080fd5b5061026e60048036038101906102699190611ea6565b610ab6565b604051610283999897969594939291906120e9565b60405180910390f35b34801561029857600080fd5b506102a1610c51565b6040516102ae9190612184565b60405180910390f35b3480156102c357600080fd5b506102de60048036038101906102d99190611ea6565b610c57565b005b3480156102ec57600080fd5b5061030760048036038101906103029190612019565b610cf1565b6040516103149190612184565b60405180910390f35b34801561032957600080fd5b50610344600480360381019061033f91906121cb565b610d16565b005b610360600480360381019061035b9190612340565b611494565b005b34801561036e57600080fd5b5061038960048036038101906103849190611ea6565b61170c565b6040516103969190612184565b60405180910390f35b6103b960048036038101906103b491906123df565b611747565b005b3373ffffffffffffffffffffffffffffffffffffffff1660066001836103e1919061247d565b815481106103f2576103f16124b1565b5b906000526020600020906009020160080160009054906101000a900473ffffffffffffffffffffffffffffffffffffffff1673ffffffffffffffffffffffffffffffffffffffff16141561047b576040517f08c379a00000000000000000000000000000000000000000000000000000000081526004016104729061252c565b60405180910390fd5b6001600660018361048c919061247d565b8154811061049d5761049c6124b1565b5b906000526020600020906009020160080160146101000a81548160ff02191690831515021790555060066001826104d4919061247d565b815481106104e5576104e46124b1565b5b906000526020600020906009020160080160009054906101000a900473ffffffffffffffffffffffffffffffffffffffff1673ffffffffffffffffffffffffffffffffffffffff166108fc600660018461053f919061247d565b815481106105505761054f6124b1565b5b9060005260206000209060090201600201549081150290604051600060405180830381858888f1935050505015801561058d573d6000803e3d6000fd5b5050565b60005b6006805490508110156107fd5760005b600682815481106105b8576105b76124b1565b5b9060005260206000209060090201600701805490508110156107e9578273ffffffffffffffffffffffffffffffffffffffff16600683815481106105ff576105fe6124b1565b5b90600052602060002090600902016007018281548110610622576106216124b1565b5b9060005260206000200160009054906101000a900473ffffffffffffffffffffffffffffffffffffffff1673ffffffffffffffffffffffffffffffffffffffff1614156107d65760076006838154811061067f5761067e6124b1565b5b9060005260206000209060090201908060018154018082558091505060019003906000526020600020906009020160009091909190915060008201816000019080546106ca9061257b565b6106d5929190611b93565b5060018201816001019080546106ea9061257b565b6106f5929190611b93565b506002820154816002015560038201548160030155600482015481600401556005820154816005015560068201548160060155600782018160070190805461073e929190611c20565b506008820160009054906101000a900473ffffffffffffffffffffffffffffffffffffffff168160080160006101000a81548173ffffffffffffffffffffffffffffffffffffffff021916908373ffffffffffffffffffffffffffffffffffffffff1602179055506008820160149054906101000a900460ff168160080160146101000a81548160ff02191690831515021790555050505b80806107e1906125ad565b9150506105a4565b5080806107f5906125ad565b915050610594565b5050565b600160205280600052604060002060009150905080546108209061257b565b80601f016020809104026020016040519081016040528092919081815260200182805461084c9061257b565b80156108995780601f1061086e57610100808354040283529160200191610899565b820191906000526020600020905b81548152906001019060200180831161087c57829003601f168201915b505050505081565b600260205281600052604060002081815481106108bd57600080fd5b906000526020600020016000915091509054906101000a900473ffffffffffffffffffffffffffffffffffffffff1681565b600860009054906101000a900473ffffffffffffffffffffffffffffffffffffffff1681565b6007818154811061092557600080fd5b90600052602060002090600902016000915090508060000180546109489061257b565b80601f01602080910402602001604051908101604052809291908181526020018280546109749061257b565b80156109c15780601f10610996576101008083540402835291602001916109c1565b820191906000526020600020905b8154815290600101906020018083116109a457829003601f168201915b5050505050908060010180546109d69061257b565b80601f0160208091040260200160405190810160405280929190818152602001828054610a029061257b565b8015610a4f5780601f10610a2457610100808354040283529160200191610a4f565b820191906000526020600020905b815481529060010190602001808311610a3257829003601f168201915b5050505050908060020154908060030154908060040154908060050154908060060154908060080160009054906101000a900473ffffffffffffffffffffffffffffffffffffffff16908060080160149054906101000a900460ff16905089565b60045481565b60068181548110610ac657600080fd5b9060005260206000209060090201600091509050806000018054610ae99061257b565b80601f0160208091040260200160405190810160405280929190818152602001828054610b159061257b565b8015610b625780601f10610b3757610100808354040283529160200191610b62565b820191906000526020600020905b815481529060010190602001808311610b4557829003601f168201915b505050505090806001018054610b779061257b565b80601f0160208091040260200160405190810160405280929190818152602001828054610ba39061257b565b8015610bf05780601f10610bc557610100808354040283529160200191610bf0565b820191906000526020600020905b815481529060010190602001808311610bd357829003601f168201915b5050505050908060020154908060030154908060040154908060050154908060060154908060080160009054906101000a900473ffffffffffffffffffffffffffffffffffffffff16908060080160149054906101000a900460ff16905089565b60035481565b600860009054906101000a900473ffffffffffffffffffffffffffffffffffffffff1673ffffffffffffffffffffffffffffffffffffffff163373ffffffffffffffffffffffffffffffffffffffff1614610ce7576040517f08c379a0000000000000000000000000000000000000000000000000000000008152600401610cde90612668565b60405180910390fd5b8060038190555050565b6000602052816000526040600020602052806000526040600020600091509150505481565b3373ffffffffffffffffffffffffffffffffffffffff166006600184610d3c919061247d565b81548110610d4d57610d4c6124b1565b5b906000526020600020906009020160080160009054906101000a900473ffffffffffffffffffffffffffffffffffffffff1673ffffffffffffffffffffffffffffffffffffffff161415610dd6576040517f08c379a0000000000000000000000000000000000000000000000000000000008152600401610dcd906126fa565b60405180910390fd5b8073ffffffffffffffffffffffffffffffffffffffff166108fc6006600185610dff919061247d565b81548110610e1057610e0f6124b1565b5b9060005260206000209060090201600201549081150290604051600060405180830381858888f19350505050158015610e4d573d6000803e3d6000fd5b506000803373ffffffffffffffffffffffffffffffffffffffff1673ffffffffffffffffffffffffffffffffffffffff1681526020019081526020016000206000838152602001908152602001600020546006600184610ead919061247d565b81548110610ebe57610ebd6124b1565b5b90600052602060002090600902016004016000828254610ede919061271a565b9250508190555060005b600260006006600186610efb919061247d565b81548110610f0c57610f0b6124b1565b5b906000526020600020906009020160080160009054906101000a900473ffffffffffffffffffffffffffffffffffffffff1673ffffffffffffffffffffffffffffffffffffffff1673ffffffffffffffffffffffffffffffffffffffff1681526020019081526020016000208054905081101561148f57600260006006600186610f96919061247d565b81548110610fa757610fa66124b1565b5b906000526020600020906009020160080160009054906101000a900473ffffffffffffffffffffffffffffffffffffffff1673ffffffffffffffffffffffffffffffffffffffff1673ffffffffffffffffffffffffffffffffffffffff1681526020019081526020016000208181548110611025576110246124b1565b5b9060005260206000200160009054906101000a900473ffffffffffffffffffffffffffffffffffffffff1673ffffffffffffffffffffffffffffffffffffffff168273ffffffffffffffffffffffffffffffffffffffff16141561147c57600260006006600186611096919061247d565b815481106110a7576110a66124b1565b5b906000526020600020906009020160080160009054906101000a900473ffffffffffffffffffffffffffffffffffffffff1673ffffffffffffffffffffffffffffffffffffffff1673ffffffffffffffffffffffffffffffffffffffff16815260200190815260200160002080549050811061112257600080fd5b60008190505b600160026000600660018861113d919061247d565b8154811061114e5761114d6124b1565b5b906000526020600020906009020160080160009054906101000a900473ffffffffffffffffffffffffffffffffffffffff1673ffffffffffffffffffffffffffffffffffffffff1673ffffffffffffffffffffffffffffffffffffffff168152602001908152602001600020805490506111c8919061247d565b8110156113a5576002600060066001876111e2919061247d565b815481106111f3576111f26124b1565b5b906000526020600020906009020160080160009054906101000a900473ffffffffffffffffffffffffffffffffffffffff1673ffffffffffffffffffffffffffffffffffffffff1673ffffffffffffffffffffffffffffffffffffffff16815260200190815260200160002060018261126c919061271a565b8154811061127d5761127c6124b1565b5b9060005260206000200160009054906101000a900473ffffffffffffffffffffffffffffffffffffffff166002600060066001886112bb919061247d565b815481106112cc576112cb6124b1565b5b906000526020600020906009020160080160009054906101000a900473ffffffffffffffffffffffffffffffffffffffff1673ffffffffffffffffffffffffffffffffffffffff1673ffffffffffffffffffffffffffffffffffffffff168152602001908152602001600020828154811061134a576113496124b1565b5b9060005260206000200160006101000a81548173ffffffffffffffffffffffffffffffffffffffff021916908373ffffffffffffffffffffffffffffffffffffffff160217905550808061139d906125ad565b915050611128565b506002600060066001866113b9919061247d565b815481106113ca576113c96124b1565b5b906000526020600020906009020160080160009054906101000a900473ffffffffffffffffffffffffffffffffffffffff1673ffffffffffffffffffffffffffffffffffffffff1673ffffffffffffffffffffffffffffffffffffffff16815260200190815260200160002080548061144657611445612770565b5b6001900381819060005260206000200160006101000a81549073ffffffffffffffffffffffffffffffffffffffff021916905590555b8080611487906125ad565b915050610ee8565b505050565b600082116114d7576040517f08c379a00000000000000000000000000000000000000000000000000000000081526004016114ce90612811565b60405180910390fd5b806004546114e59190612831565b3414611526576040517f08c379a000000000000000000000000000000000000000000000000000000000815260040161151d906128d7565b60405180910390fd5b61152e611c72565b848160000181905250838160200181905250670de0b6b3a7640000836115549190612831565b816040018181525050818160800181815250503381610100019073ffffffffffffffffffffffffffffffffffffffff16908173ffffffffffffffffffffffffffffffffffffffff1681525050600554816060018181525050428160a0018181525050600354426115c4919061271a565b8160c001818152505060068190806001815401808255809150506001900390600052602060002090600902016000909190919091506000820151816000019080519060200190611615929190611cdd565b506020820151816001019080519060200190611632929190611cdd565b5060408201518160020155606082015181600301556080820151816004015560a0820151816005015560c0820151816006015560e0820151816007019080519060200190611681929190611d63565b506101008201518160080160006101000a81548173ffffffffffffffffffffffffffffffffffffffff021916908373ffffffffffffffffffffffffffffffffffffffff1602179055506101208201518160080160146101000a81548160ff021916908315150217905550505060056000815480929190611700906125ad565b91905055505050505050565b6000600660018361171d919061247d565b8154811061172e5761172d6124b1565b5b9060005260206000209060090201600401549050919050565b34816006600186611758919061247d565b81548110611769576117686124b1565b5b9060005260206000209060090201600201546117859190612831565b146117c5576040517f08c379a00000000000000000000000000000000000000000000000000000000081526004016117bc90612943565b60405180910390fd5b3373ffffffffffffffffffffffffffffffffffffffff1660066001856117eb919061247d565b815481106117fc576117fb6124b1565b5b906000526020600020906009020160080160009054906101000a900473ffffffffffffffffffffffffffffffffffffffff1673ffffffffffffffffffffffffffffffffffffffff161415611885576040517f08c379a000000000000000000000000000000000000000000000000000000000815260040161187c906129af565b60405180910390fd5b600081116118c8576040517f08c379a00000000000000000000000000000000000000000000000000000000081526004016118bf90612a41565b60405180910390fd5b60066001846118d7919061247d565b815481106118e8576118e76124b1565b5b90600052602060002090600902016004015481111561193c576040517f08c379a000000000000000000000000000000000000000000000000000000000815260040161193390612ad3565b60405180910390fd5b600660018461194b919061247d565b8154811061195c5761195b6124b1565b5b9060005260206000209060090201600701339080600181540180825580915050600190039060005260206000200160009091909190916101000a81548173ffffffffffffffffffffffffffffffffffffffff021916908373ffffffffffffffffffffffffffffffffffffffff16021790555081600160003373ffffffffffffffffffffffffffffffffffffffff1673ffffffffffffffffffffffffffffffffffffffff1681526020019081526020016000209080519060200190611a21929190611cdd565b506006600184611a31919061247d565b81548110611a4257611a416124b1565b5b9060005260206000209060090201600701600260006006600187611a66919061247d565b81548110611a7757611a766124b1565b5b906000526020600020906009020160080160009054906101000a900473ffffffffffffffffffffffffffffffffffffffff1673ffffffffffffffffffffffffffffffffffffffff1673ffffffffffffffffffffffffffffffffffffffff168152602001908152602001600020908054611af1929190611ded565b50806000803373ffffffffffffffffffffffffffffffffffffffff1673ffffffffffffffffffffffffffffffffffffffff168152602001908152602001600020600085815260200190815260200160002081905550806006600185611b56919061247d565b81548110611b6757611b666124b1565b5b90600052602060002090600902016004016000828254611b87919061247d565b92505081905550505050565b828054611b9f9061257b565b90600052602060002090601f016020900481019282611bc15760008555611c0f565b82601f10611bd25780548555611c0f565b82800160010185558215611c0f57600052602060002091601f016020900482015b82811115611c0e578254825591600101919060010190611bf3565b5b509050611c1c9190611e3f565b5090565b828054828255906000526020600020908101928215611c615760005260206000209182015b82811115611c60578254825591600101919060010190611c45565b5b509050611c6e9190611e3f565b5090565b6040518061014001604052806060815260200160608152602001600081526020016000815260200160008152602001600081526020016000815260200160608152602001600073ffffffffffffffffffffffffffffffffffffffff1681526020016000151581525090565b828054611ce99061257b565b90600052602060002090601f016020900481019282611d0b5760008555611d52565b82601f10611d2457805160ff1916838001178555611d52565b82800160010185558215611d52579182015b82811115611d51578251825591602001919060010190611d36565b5b509050611d5f9190611e3f565b5090565b828054828255906000526020600020908101928215611ddc579160200282015b82811115611ddb5782518260006101000a81548173ffffffffffffffffffffffffffffffffffffffff021916908373ffffffffffffffffffffffffffffffffffffffff16021790555091602001919060010190611d83565b5b509050611de99190611e3f565b5090565b828054828255906000526020600020908101928215611e2e5760005260206000209182015b82811115611e2d578254825591600101919060010190611e12565b5b509050611e3b9190611e3f565b5090565b5b80821115611e58576000816000905550600101611e40565b5090565b6000604051905090565b600080fd5b600080fd5b6000819050919050565b611e8381611e70565b8114611e8e57600080fd5b50565b600081359050611ea081611e7a565b92915050565b600060208284031215611ebc57611ebb611e66565b5b6000611eca84828501611e91565b91505092915050565b600073ffffffffffffffffffffffffffffffffffffffff82169050919050565b6000611efe82611ed3565b9050919050565b611f0e81611ef3565b8114611f1957600080fd5b50565b600081359050611f2b81611f05565b92915050565b600060208284031215611f4757611f46611e66565b5b6000611f5584828501611f1c565b91505092915050565b600081519050919050565b600082825260208201905092915050565b60005b83811015611f98578082015181840152602081019050611f7d565b83811115611fa7576000848401525b50505050565b6000601f19601f8301169050919050565b6000611fc982611f5e565b611fd38185611f69565b9350611fe3818560208601611f7a565b611fec81611fad565b840191505092915050565b600060208201905081810360008301526120118184611fbe565b905092915050565b600080604083850312156120305761202f611e66565b5b600061203e85828601611f1c565b925050602061204f85828601611e91565b9150509250929050565b61206281611ef3565b82525050565b600060208201905061207d6000830184612059565b92915050565b600061208e82611ed3565b9050919050565b61209e81612083565b82525050565b60006020820190506120b96000830184612095565b92915050565b6120c881611e70565b82525050565b60008115159050919050565b6120e3816120ce565b82525050565b6000610120820190508181036000830152612104818c611fbe565b90508181036020830152612118818b611fbe565b9050612127604083018a6120bf565b61213460608301896120bf565b61214160808301886120bf565b61214e60a08301876120bf565b61215b60c08301866120bf565b61216860e0830185612095565b6121766101008301846120da565b9a9950505050505050505050565b600060208201905061219960008301846120bf565b92915050565b6121a881612083565b81146121b357600080fd5b50565b6000813590506121c58161219f565b92915050565b600080604083850312156121e2576121e1611e66565b5b60006121f085828601611e91565b9250506020612201858286016121b6565b9150509250929050565b600080fd5b600080fd5b7f4e487b7100000000000000000000000000000000000000000000000000000000600052604160045260246000fd5b61224d82611fad565b810181811067ffffffffffffffff8211171561226c5761226b612215565b5b80604052505050565b600061227f611e5c565b905061228b8282612244565b919050565b600067ffffffffffffffff8211156122ab576122aa612215565b5b6122b482611fad565b9050602081019050919050565b82818337600083830152505050565b60006122e36122de84612290565b612275565b9050828152602081018484840111156122ff576122fe612210565b5b61230a8482856122c1565b509392505050565b600082601f8301126123275761232661220b565b5b81356123378482602086016122d0565b91505092915050565b6000806000806080858703121561235a57612359611e66565b5b600085013567ffffffffffffffff81111561237857612377611e6b565b5b61238487828801612312565b945050602085013567ffffffffffffffff8111156123a5576123a4611e6b565b5b6123b187828801612312565b93505060406123c287828801611e91565b92505060606123d387828801611e91565b91505092959194509250565b6000806000606084860312156123f8576123f7611e66565b5b600061240686828701611e91565b935050602084013567ffffffffffffffff81111561242757612426611e6b565b5b61243386828701612312565b925050604061244486828701611e91565b9150509250925092565b7f4e487b7100000000000000000000000000000000000000000000000000000000600052601160045260246000fd5b600061248882611e70565b915061249383611e70565b9250828210156124a6576124a561244e565b5b828203905092915050565b7f4e487b7100000000000000000000000000000000000000000000000000000000600052603260045260246000fd5b7f4f6e6c792062757965722063616e2063616c6c20746869730000000000000000600082015250565b6000612516601883611f69565b9150612521826124e0565b602082019050919050565b6000602082019050818103600083015261254581612509565b9050919050565b7f4e487b7100000000000000000000000000000000000000000000000000000000600052602260045260246000fd5b6000600282049050600182168061259357607f821691505b602082108114156125a7576125a661254c565b5b50919050565b60006125b882611e70565b91507fffffffffffffffffffffffffffffffffffffffffffffffffffffffffffffffff8214156125eb576125ea61244e565b5b600182019050919050565b7f4f6e6c79206d616e616765722063616e2063616c6c20746869732066756e637460008201527f696f6e0000000000000000000000000000000000000000000000000000000000602082015250565b6000612652602383611f69565b915061265d826125f6565b604082019050919050565b6000602082019050818103600083015261268181612645565b9050919050565b7f53656c6c65722063616e27742063616e63656c6c20746865206f72646572656460008201527f2070726f64756374000000000000000000000000000000000000000000000000602082015250565b60006126e4602883611f69565b91506126ef82612688565b604082019050919050565b60006020820190508181036000830152612713816126d7565b9050919050565b600061272582611e70565b915061273083611e70565b9250827fffffffffffffffffffffffffffffffffffffffffffffffffffffffffffffffff038211156127655761276461244e565b5b828201905092915050565b7f4e487b7100000000000000000000000000000000000000000000000000000000600052603160045260246000fd5b7f50726963652073686f756c642062652067726561746572207468656e207a657260008201527f6f00000000000000000000000000000000000000000000000000000000000000602082015250565b60006127fb602183611f69565b91506128068261279f565b604082019050919050565b6000602082019050818103600083015261282a816127ee565b9050919050565b600061283c82611e70565b915061284783611e70565b9250817fffffffffffffffffffffffffffffffffffffffffffffffffffffffffffffffff04831182151516156128805761287f61244e565b5b828202905092915050565b7f506c656173652070617920746865206578616374207072696365000000000000600082015250565b60006128c1601a83611f69565b91506128cc8261288b565b602082019050919050565b600060208201905081810360008301526128f0816128b4565b9050919050565b7f506c656173652020706179207468652065786163742070726963650000000000600082015250565b600061292d601b83611f69565b9150612938826128f7565b602082019050919050565b6000602082019050818103600083015261295c81612920565b9050919050565b7f53656c6c6572206e6f7420626520746865206275796572000000000000000000600082015250565b6000612999601783611f69565b91506129a482612963565b602082019050919050565b600060208201905081810360008301526129c88161298c565b9050919050565b7f506c656173652073656c65637420686f77206d616e792070726f64756374732060008201527f796f752077616e7420746f206275790000000000000000000000000000000000602082015250565b6000612a2b602f83611f69565b9150612a36826129cf565b604082019050919050565b60006020820190508181036000830152612a5a81612a1e565b9050919050565b7f596f75207265616368207468652070726f6475637427732073746f636b206c6960008201527f6d69740000000000000000000000000000000000000000000000000000000000602082015250565b6000612abd602383611f69565b9150612ac882612a61565b604082019050919050565b60006020820190508181036000830152612aec81612ab0565b905091905056fea2646970667358221220b658abe3adaa8df4d1c9e6fd690980e1afdd0098757f31241936f556465d85cd64736f6c63430008090033",
  "linkReferences": {},
  "deployedLinkReferences": {}
}