{
  "_format": "hh-sol-artifact-1",
  "contractName": "Ecommarce",
  "sourceName": "contracts/Ecommarce.sol",
  "abi": [
    {
      "inputs": [],
      "stateMutability": "nonpayable",
      "type": "constructor"
    },
    {
      "inputs": [],
      "name": "ShowMyCustomers",
      "outputs": [
        {
          "internalType": "address[]",
          "name": "_buyers",
          "type": "address[]"
        }
      ],
      "stateMutability": "view",
      "type": "function"
    },
    {
      "inputs": [
        {
          "internalType": "uint256",
          "name": "_id",
          "type": "uint256"
        }
      ],
      "name": "ShowMyCustomersById",
      "outputs": [
        {
          "internalType": "address[]",
          "name": "_buyers",
          "type": "address[]"
        }
      ],
      "stateMutability": "view",
      "type": "function"
    },
    {
      "inputs": [
        {
          "internalType": "uint256",
          "name": "_productId",
          "type": "uint256"
        },
        {
          "internalType": "string",
          "name": "_deliveryAddress",
          "type": "string"
        },
        {
          "internalType": "uint256",
          "name": "_numberOfProducts",
          "type": "uint256"
        }
      ],
      "name": "buy",
      "outputs": [],
      "stateMutability": "payable",
      "type": "function"
    },
    {
      "inputs": [
        {
          "internalType": "address",
          "name": "",
          "type": "address"
        },
        {
          "internalType": "uint256",
          "name": "",
          "type": "uint256"
        },
        {
          "internalType": "uint256",
          "name": "",
          "type": "uint256"
        }
      ],
      "name": "customerById",
      "outputs": [
        {
          "internalType": "address",
          "name": "",
          "type": "address"
        }
      ],
      "stateMutability": "view",
      "type": "function"
    },
    {
      "inputs": [
        {
          "internalType": "uint256",
          "name": "",
          "type": "uint256"
        },
        {
          "internalType": "address",
          "name": "",
          "type": "address"
        }
      ],
      "name": "delevery",
      "outputs": [
        {
          "internalType": "bool",
          "name": "",
          "type": "bool"
        }
      ],
      "stateMutability": "view",
      "type": "function"
    },
    {
      "inputs": [
        {
          "internalType": "uint256",
          "name": "_productId",
          "type": "uint256"
        }
      ],
      "name": "delivery",
      "outputs": [],
      "stateMutability": "payable",
      "type": "function"
    },
    {
      "inputs": [
        {
          "internalType": "uint256",
          "name": "",
          "type": "uint256"
        },
        {
          "internalType": "address",
          "name": "",
          "type": "address"
        }
      ],
      "name": "deliveryLocation",
      "outputs": [
        {
          "internalType": "string",
          "name": "",
          "type": "string"
        }
      ],
      "stateMutability": "view",
      "type": "function"
    },
    {
      "inputs": [],
      "name": "endAt",
      "outputs": [
        {
          "internalType": "uint256",
          "name": "",
          "type": "uint256"
        }
      ],
      "stateMutability": "view",
      "type": "function"
    },
    {
      "inputs": [],
      "name": "getAllMyListedProducts",
      "outputs": [
        {
          "components": [
            {
              "internalType": "string",
              "name": "title",
              "type": "string"
            },
            {
              "internalType": "string",
              "name": "desc",
              "type": "string"
            },
            {
              "internalType": "string",
              "name": "img",
              "type": "string"
            },
            {
              "internalType": "uint256",
              "name": "price",
              "type": "uint256"
            },
            {
              "internalType": "uint256",
              "name": "productId",
              "type": "uint256"
            },
            {
              "internalType": "uint256",
              "name": "stocks",
              "type": "uint256"
            },
            {
              "internalType": "uint256",
              "name": "deliveryStart",
              "type": "uint256"
            },
            {
              "internalType": "uint256",
              "name": "deliveryEnd",
              "type": "uint256"
            },
            {
              "internalType": "address[]",
              "name": "buyer",
              "type": "address[]"
            },
            {
              "internalType": "address payable",
              "name": "seller",
              "type": "address"
            },
            {
              "internalType": "bool",
              "name": "delevered",
              "type": "bool"
            }
          ],
          "internalType": "struct Ecommarce.Product[]",
          "name": "",
          "type": "tuple[]"
        }
      ],
      "stateMutability": "view",
      "type": "function"
    },
    {
      "inputs": [],
      "name": "getAllProducts",
      "outputs": [
        {
          "components": [
            {
              "internalType": "string",
              "name": "title",
              "type": "string"
            },
            {
              "internalType": "string",
              "name": "desc",
              "type": "string"
            },
            {
              "internalType": "string",
              "name": "img",
              "type": "string"
            },
            {
              "internalType": "uint256",
              "name": "price",
              "type": "uint256"
            },
            {
              "internalType": "uint256",
              "name": "productId",
              "type": "uint256"
            },
            {
              "internalType": "uint256",
              "name": "stocks",
              "type": "uint256"
            },
            {
              "internalType": "uint256",
              "name": "deliveryStart",
              "type": "uint256"
            },
            {
              "internalType": "uint256",
              "name": "deliveryEnd",
              "type": "uint256"
            },
            {
              "internalType": "address[]",
              "name": "buyer",
              "type": "address[]"
            },
            {
              "internalType": "address payable",
              "name": "seller",
              "type": "address"
            },
            {
              "internalType": "bool",
              "name": "delevered",
              "type": "bool"
            }
          ],
          "internalType": "struct Ecommarce.Product[]",
          "name": "",
          "type": "tuple[]"
        }
      ],
      "stateMutability": "view",
      "type": "function"
    },
    {
      "inputs": [],
      "name": "getMyAllProduct",
      "outputs": [
        {
          "components": [
            {
              "internalType": "string",
              "name": "title",
              "type": "string"
            },
            {
              "internalType": "string",
              "name": "desc",
              "type": "string"
            },
            {
              "internalType": "string",
              "name": "img",
              "type": "string"
            },
            {
              "internalType": "uint256",
              "name": "price",
              "type": "uint256"
            },
            {
              "internalType": "uint256",
              "name": "productId",
              "type": "uint256"
            },
            {
              "internalType": "uint256",
              "name": "stocks",
              "type": "uint256"
            },
            {
              "internalType": "uint256",
              "name": "deliveryStart",
              "type": "uint256"
            },
            {
              "internalType": "uint256",
              "name": "deliveryEnd",
              "type": "uint256"
            },
            {
              "internalType": "address[]",
              "name": "buyer",
              "type": "address[]"
            },
            {
              "internalType": "address payable",
              "name": "seller",
              "type": "address"
            },
            {
              "internalType": "bool",
              "name": "delevered",
              "type": "bool"
            }
          ],
          "internalType": "struct Ecommarce.Product[]",
          "name": "",
          "type": "tuple[]"
        }
      ],
      "stateMutability": "view",
      "type": "function"
    },
    {
      "inputs": [],
      "name": "listPrice",
      "outputs": [
        {
          "internalType": "uint256",
          "name": "",
          "type": "uint256"
        }
      ],
      "stateMutability": "view",
      "type": "function"
    },
    {
      "inputs": [],
      "name": "manager",
      "outputs": [
        {
          "internalType": "address payable",
          "name": "",
          "type": "address"
        }
      ],
      "stateMutability": "view",
      "type": "function"
    },
    {
      "inputs": [
        {
          "internalType": "address",
          "name": "",
          "type": "address"
        },
        {
          "internalType": "uint256",
          "name": "",
          "type": "uint256"
        }
      ],
      "name": "myCustomers",
      "outputs": [
        {
          "internalType": "address",
          "name": "",
          "type": "address"
        }
      ],
      "stateMutability": "view",
      "type": "function"
    },
    {
      "inputs": [
        {
          "internalType": "uint256",
          "name": "",
          "type": "uint256"
        }
      ],
      "name": "products",
      "outputs": [
        {
          "internalType": "string",
          "name": "title",
          "type": "string"
        },
        {
          "internalType": "string",
          "name": "desc",
          "type": "string"
        },
        {
          "internalType": "string",
          "name": "img",
          "type": "string"
        },
        {
          "internalType": "uint256",
          "name": "price",
          "type": "uint256"
        },
        {
          "internalType": "uint256",
          "name": "productId",
          "type": "uint256"
        },
        {
          "internalType": "uint256",
          "name": "stocks",
          "type": "uint256"
        },
        {
          "internalType": "uint256",
          "name": "deliveryStart",
          "type": "uint256"
        },
        {
          "internalType": "uint256",
          "name": "deliveryEnd",
          "type": "uint256"
        },
        {
          "internalType": "address payable",
          "name": "seller",
          "type": "address"
        },
        {
          "internalType": "bool",
          "name": "delevered",
          "type": "bool"
        }
      ],
      "stateMutability": "view",
      "type": "function"
    },
    {
      "inputs": [
        {
          "internalType": "address",
          "name": "",
          "type": "address"
        },
        {
          "internalType": "uint256",
          "name": "",
          "type": "uint256"
        }
      ],
      "name": "productsNumber",
      "outputs": [
        {
          "internalType": "uint256",
          "name": "",
          "type": "uint256"
        }
      ],
      "stateMutability": "view",
      "type": "function"
    },
    {
      "inputs": [
        {
          "internalType": "string",
          "name": "_title",
          "type": "string"
        },
        {
          "internalType": "string",
          "name": "_desc",
          "type": "string"
        },
        {
          "internalType": "uint256",
          "name": "_price",
          "type": "uint256"
        },
        {
          "internalType": "uint256",
          "name": "_stocks",
          "type": "uint256"
        },
        {
          "internalType": "string",
          "name": "_img",
          "type": "string"
        }
      ],
      "name": "registerProduct",
      "outputs": [],
      "stateMutability": "payable",
      "type": "function"
    },
    {
      "inputs": [
        {
          "internalType": "uint256",
          "name": "_productId",
          "type": "uint256"
        }
      ],
      "name": "showStockOfProduct",
      "outputs": [
        {
          "internalType": "uint256",
          "name": "",
          "type": "uint256"
        }
      ],
      "stateMutability": "view",
      "type": "function"
    },
    {
      "inputs": [
        {
          "internalType": "uint256",
          "name": "_day",
          "type": "uint256"
        }
      ],
      "name": "updateDeliveryDays",
      "outputs": [],
      "stateMutability": "nonpayable",
      "type": "function"
    }
  ],
  "bytecode": "0x608060405260016007556000600960146101000a81548160ff02191690831515021790555034801561003057600080fd5b5033600960006101000a81548173ffffffffffffffffffffffffffffffffffffffff021916908373ffffffffffffffffffffffffffffffffffffffff160217905550662386f26fc1000060068190555062093a8060058190555061347b806100996000396000f3fe6080604052600436106101145760003560e01c80637cc3ae8c116100a0578063cc47f8bd11610064578063cc47f8bd146103a4578063cec02c8f146103e1578063deefb56a146103fd578063e1a983c11461043a578063fff2af9f1461047757610114565b80637cc3ae8c146102bd5780637f4ed9a8146102e85780638b943c50146103115780639c3ae2c21461034e578063c6e92d631461037957610114565b806330c07aee116100e757806330c07aee146101c8578063481c6a751461020557806357a9666e146102305780636eb588d91461024c5780637acc0b201461027757610114565b806302ee3a52146101195780631144fd72146101445780632d3afcb8146101605780632f0e68121461019d575b600080fd5b34801561012557600080fd5b5061012e6104b4565b60405161013b9190612876565b60405180910390f35b61015e600480360381019061015991906128d8565b6107fb565b005b34801561016c57600080fd5b5061018760048036038101906101829190612931565b610a3a565b6040516101949190612980565b60405180910390f35b3480156101a957600080fd5b506101b2610a69565b6040516101bf9190612876565b60405180910390f35b3480156101d457600080fd5b506101ef60048036038101906101ea919061299b565b611020565b6040516101fc91906129ea565b60405180910390f35b34801561021157600080fd5b5061021a61106e565b6040516102279190612a14565b60405180910390f35b61024a60048036038101906102459190612b64565b611094565b005b34801561025857600080fd5b506102616112d2565b60405161026e9190612c42565b60405180910390f35b34801561028357600080fd5b5061029e600480360381019061029991906128d8565b6112d8565b6040516102b49a99989796959493929190612ca7565b60405180910390f35b3480156102c957600080fd5b506102d2611501565b6040516102df9190612c42565b60405180910390f35b3480156102f457600080fd5b5061030f600480360381019061030a91906128d8565b611507565b005b34801561031d57600080fd5b506103386004803603810190610333919061299b565b6115a1565b6040516103459190612c42565b60405180910390f35b34801561035a57600080fd5b506103636115c6565b6040516103709190612876565b60405180910390f35b34801561038557600080fd5b5061038e611ab7565b60405161039b9190612dc7565b60405180910390f35b3480156103b057600080fd5b506103cb60048036038101906103c691906128d8565b611b82565b6040516103d89190612c42565b60405180910390f35b6103fb60048036038101906103f69190612de9565b611bbd565b005b34801561040957600080fd5b50610424600480360381019061041f9190612931565b6120fb565b6040516104319190612e58565b60405180910390f35b34801561044657600080fd5b50610461600480360381019061045c91906128d8565b6121a8565b60405161046e9190612dc7565b60405180910390f35b34801561048357600080fd5b5061049e60048036038101906104999190612e7a565b612286565b6040516104ab91906129ea565b60405180910390f35b60606008805480602002602001604051908101604052809291908181526020016000905b828210156107f257838290600052602060002090600a02016040518061016001604052908160008201805461050c90612efc565b80601f016020809104026020016040519081016040528092919081815260200182805461053890612efc565b80156105855780601f1061055a57610100808354040283529160200191610585565b820191906000526020600020905b81548152906001019060200180831161056857829003601f168201915b5050505050815260200160018201805461059e90612efc565b80601f01602080910402602001604051908101604052809291908181526020018280546105ca90612efc565b80156106175780601f106105ec57610100808354040283529160200191610617565b820191906000526020600020905b8154815290600101906020018083116105fa57829003601f168201915b5050505050815260200160028201805461063090612efc565b80601f016020809104026020016040519081016040528092919081815260200182805461065c90612efc565b80156106a95780601f1061067e576101008083540402835291602001916106a9565b820191906000526020600020905b81548152906001019060200180831161068c57829003601f168201915b5050505050815260200160038201548152602001600482015481526020016005820154815260200160068201548152602001600782015481526020016008820180548060200260200160405190810160405280929190818152602001828054801561076957602002820191906000526020600020905b8160009054906101000a900473ffffffffffffffffffffffffffffffffffffffff1673ffffffffffffffffffffffffffffffffffffffff168152602001906001019080831161071f575b505050505081526020016009820160009054906101000a900473ffffffffffffffffffffffffffffffffffffffff1673ffffffffffffffffffffffffffffffffffffffff1673ffffffffffffffffffffffffffffffffffffffff1681526020016009820160149054906101000a900460ff161515151581525050815260200190600101906104d8565b50505050905090565b3373ffffffffffffffffffffffffffffffffffffffff1660086001836108219190612f5d565b8154811061083257610831612f91565b5b90600052602060002090600a020160090160009054906101000a900473ffffffffffffffffffffffffffffffffffffffff1673ffffffffffffffffffffffffffffffffffffffff1614156108bb576040517f08c379a00000000000000000000000000000000000000000000000000000000081526004016108b29061300c565b60405180910390fd5b600160086001836108cc9190612f5d565b815481106108dd576108dc612f91565b5b90600052602060002090600a020160090160146101000a81548160ff02191690831515021790555060086001826109149190612f5d565b8154811061092557610924612f91565b5b90600052602060002090600a020160090160009054906101000a900473ffffffffffffffffffffffffffffffffffffffff1673ffffffffffffffffffffffffffffffffffffffff166108fc600860018461097f9190612f5d565b815481106109905761098f612f91565b5b90600052602060002090600a0201600301549081150290604051600060405180830381858888f193505050501580156109cd573d6000803e3d6000fd5b5060016004600083815260200190815260200160002060003373ffffffffffffffffffffffffffffffffffffffff1673ffffffffffffffffffffffffffffffffffffffff16815260200190815260200160002060006101000a81548160ff02191690831515021790555050565b60046020528160005260406000206020528060005260406000206000915091509054906101000a900460ff1681565b606060008060005b600880549050811015610b7c5760005b60088281548110610a9557610a94612f91565b5b90600052602060002090600a020160080180549050811015610b68573373ffffffffffffffffffffffffffffffffffffffff1660088381548110610adc57610adb612f91565b5b90600052602060002090600a02016008018281548110610aff57610afe612f91565b5b9060005260206000200160009054906101000a900473ffffffffffffffffffffffffffffffffffffffff1673ffffffffffffffffffffffffffffffffffffffff161415610b55578380610b519061302c565b9450505b8080610b609061302c565b915050610a81565b508080610b749061302c565b915050610a71565b5060008267ffffffffffffffff811115610b9957610b98612a39565b5b604051908082528060200260200182016040528015610bd257816020015b610bbf6122e1565b815260200190600190039081610bb75790505b50905060005b6008805490508110156110165760005b60088281548110610bfc57610bfb612f91565b5b90600052602060002090600a020160080180549050811015611002573373ffffffffffffffffffffffffffffffffffffffff1660088381548110610c4357610c42612f91565b5b90600052602060002090600a02016008018281548110610c6657610c65612f91565b5b9060005260206000200160009054906101000a900473ffffffffffffffffffffffffffffffffffffffff1673ffffffffffffffffffffffffffffffffffffffff161415610fef5760088281548110610cc157610cc0612f91565b5b90600052602060002090600a020160405180610160016040529081600082018054610ceb90612efc565b80601f0160208091040260200160405190810160405280929190818152602001828054610d1790612efc565b8015610d645780601f10610d3957610100808354040283529160200191610d64565b820191906000526020600020905b815481529060010190602001808311610d4757829003601f168201915b50505050508152602001600182018054610d7d90612efc565b80601f0160208091040260200160405190810160405280929190818152602001828054610da990612efc565b8015610df65780601f10610dcb57610100808354040283529160200191610df6565b820191906000526020600020905b815481529060010190602001808311610dd957829003601f168201915b50505050508152602001600282018054610e0f90612efc565b80601f0160208091040260200160405190810160405280929190818152602001828054610e3b90612efc565b8015610e885780601f10610e5d57610100808354040283529160200191610e88565b820191906000526020600020905b815481529060010190602001808311610e6b57829003601f168201915b50505050508152602001600382015481526020016004820154815260200160058201548152602001600682015481526020016007820154815260200160088201805480602002602001604051908101604052809291908181526020018280548015610f4857602002820191906000526020600020905b8160009054906101000a900473ffffffffffffffffffffffffffffffffffffffff1673ffffffffffffffffffffffffffffffffffffffff1681526020019060010190808311610efe575b505050505081526020016009820160009054906101000a900473ffffffffffffffffffffffffffffffffffffffff1673ffffffffffffffffffffffffffffffffffffffff1673ffffffffffffffffffffffffffffffffffffffff1681526020016009820160149054906101000a900460ff161515151581525050838581518110610fd557610fd4612f91565b5b60200260200101819052508380610feb9061302c565b9450505b8080610ffa9061302c565b915050610be8565b50808061100e9061302c565b915050610bd8565b5080935050505090565b6003602052816000526040600020818154811061103c57600080fd5b906000526020600020016000915091509054906101000a900473ffffffffffffffffffffffffffffffffffffffff1681565b600960009054906101000a900473ffffffffffffffffffffffffffffffffffffffff1681565b600083116110d7576040517f08c379a00000000000000000000000000000000000000000000000000000000081526004016110ce906130e7565b60405180910390fd5b6110df6122e1565b85816000018190525084816020018190525081816040018190525083816060018181525050828160a00181815250503381610120019073ffffffffffffffffffffffffffffffffffffffff16908173ffffffffffffffffffffffffffffffffffffffff1681525050600754816080018181525050428160c00181815250506005544261116b9190613107565b8160e001818152505060088190806001815401808255809150506001900390600052602060002090600a020160009091909190915060008201518160000190805190602001906111bc929190612353565b5060208201518160010190805190602001906111d9929190612353565b5060408201518160020190805190602001906111f6929190612353565b50606082015181600301556080820151816004015560a0820151816005015560c0820151816006015560e082015181600701556101008201518160080190805190602001906112469291906123d9565b506101208201518160090160006101000a81548173ffffffffffffffffffffffffffffffffffffffff021916908373ffffffffffffffffffffffffffffffffffffffff1602179055506101408201518160090160146101000a81548160ff0219169083151502179055505050600760008154809291906112c59061302c565b9190505550505050505050565b60065481565b600881815481106112e857600080fd5b90600052602060002090600a020160009150905080600001805461130b90612efc565b80601f016020809104026020016040519081016040528092919081815260200182805461133790612efc565b80156113845780601f1061135957610100808354040283529160200191611384565b820191906000526020600020905b81548152906001019060200180831161136757829003601f168201915b50505050509080600101805461139990612efc565b80601f01602080910402602001604051908101604052809291908181526020018280546113c590612efc565b80156114125780601f106113e757610100808354040283529160200191611412565b820191906000526020600020905b8154815290600101906020018083116113f557829003601f168201915b50505050509080600201805461142790612efc565b80601f016020809104026020016040519081016040528092919081815260200182805461145390612efc565b80156114a05780601f10611475576101008083540402835291602001916114a0565b820191906000526020600020905b81548152906001019060200180831161148357829003601f168201915b5050505050908060030154908060040154908060050154908060060154908060070154908060090160009054906101000a900473ffffffffffffffffffffffffffffffffffffffff16908060090160149054906101000a900460ff1690508a565b60055481565b600960009054906101000a900473ffffffffffffffffffffffffffffffffffffffff1673ffffffffffffffffffffffffffffffffffffffff163373ffffffffffffffffffffffffffffffffffffffff1614611597576040517f08c379a000000000000000000000000000000000000000000000000000000000815260040161158e906131cf565b60405180910390fd5b8060058190555050565b6000602052816000526040600020602052806000526040600020600091509150505481565b606060008060005b600880549050811015611676573373ffffffffffffffffffffffffffffffffffffffff166008828154811061160657611605612f91565b5b90600052602060002090600a020160090160009054906101000a900473ffffffffffffffffffffffffffffffffffffffff1673ffffffffffffffffffffffffffffffffffffffff16141561166357828061165f9061302c565b9350505b808061166e9061302c565b9150506115ce565b5060008267ffffffffffffffff81111561169357611692612a39565b5b6040519080825280602002602001820160405280156116cc57816020015b6116b96122e1565b8152602001906001900390816116b15790505b50905060005b600880549050811015611aad573373ffffffffffffffffffffffffffffffffffffffff166008828154811061170a57611709612f91565b5b90600052602060002090600a020160090160009054906101000a900473ffffffffffffffffffffffffffffffffffffffff1673ffffffffffffffffffffffffffffffffffffffff161415611a9a576008818154811061176c5761176b612f91565b5b90600052602060002090600a02016040518061016001604052908160008201805461179690612efc565b80601f01602080910402602001604051908101604052809291908181526020018280546117c290612efc565b801561180f5780601f106117e45761010080835404028352916020019161180f565b820191906000526020600020905b8154815290600101906020018083116117f257829003601f168201915b5050505050815260200160018201805461182890612efc565b80601f016020809104026020016040519081016040528092919081815260200182805461185490612efc565b80156118a15780601f10611876576101008083540402835291602001916118a1565b820191906000526020600020905b81548152906001019060200180831161188457829003601f168201915b505050505081526020016002820180546118ba90612efc565b80601f01602080910402602001604051908101604052809291908181526020018280546118e690612efc565b80156119335780601f1061190857610100808354040283529160200191611933565b820191906000526020600020905b81548152906001019060200180831161191657829003601f168201915b505050505081526020016003820154815260200160048201548152602001600582015481526020016006820154815260200160078201548152602001600882018054806020026020016040519081016040528092919081815260200182805480156119f357602002820191906000526020600020905b8160009054906101000a900473ffffffffffffffffffffffffffffffffffffffff1673ffffffffffffffffffffffffffffffffffffffff16815260200190600101908083116119a9575b505050505081526020016009820160009054906101000a900473ffffffffffffffffffffffffffffffffffffffff1673ffffffffffffffffffffffffffffffffffffffff1673ffffffffffffffffffffffffffffffffffffffff1681526020016009820160149054906101000a900460ff161515151581525050828481518110611a8057611a7f612f91565b5b60200260200101819052508280611a969061302c565b9350505b8080611aa59061302c565b9150506116d2565b5080935050505090565b6060600360003373ffffffffffffffffffffffffffffffffffffffff1673ffffffffffffffffffffffffffffffffffffffff168152602001908152602001600020805480602002602001604051908101604052809291908181526020018280548015611b7857602002820191906000526020600020905b8160009054906101000a900473ffffffffffffffffffffffffffffffffffffffff1673ffffffffffffffffffffffffffffffffffffffff1681526020019060010190808311611b2e575b5050505050905090565b60006008600183611b939190612f5d565b81548110611ba457611ba3612f91565b5b90600052602060002090600a0201600501549050919050565b806008600185611bcd9190612f5d565b81548110611bde57611bdd612f91565b5b90600052602060002090600a020160030154611bfa91906131ef565b3414611c3b576040517f08c379a0000000000000000000000000000000000000000000000000000000008152600401611c3290613295565b60405180910390fd5b3373ffffffffffffffffffffffffffffffffffffffff166008600185611c619190612f5d565b81548110611c7257611c71612f91565b5b90600052602060002090600a020160090160009054906101000a900473ffffffffffffffffffffffffffffffffffffffff1673ffffffffffffffffffffffffffffffffffffffff161415611cfb576040517f08c379a0000000000000000000000000000000000000000000000000000000008152600401611cf290613301565b60405180910390fd5b60008111611d3e576040517f08c379a0000000000000000000000000000000000000000000000000000000008152600401611d3590613393565b60405180910390fd5b6008600184611d4d9190612f5d565b81548110611d5e57611d5d612f91565b5b90600052602060002090600a020160050154811115611db2576040517f08c379a0000000000000000000000000000000000000000000000000000000008152600401611da990613425565b60405180910390fd5b6008600184611dc19190612f5d565b81548110611dd257611dd1612f91565b5b90600052602060002090600a0201600801339080600181540180825580915050600190039060005260206000200160009091909190916101000a81548173ffffffffffffffffffffffffffffffffffffffff021916908373ffffffffffffffffffffffffffffffffffffffff160217905550816002600085815260200190815260200160002060003373ffffffffffffffffffffffffffffffffffffffff1673ffffffffffffffffffffffffffffffffffffffff1681526020019081526020016000209080519060200190611ea8929190612353565b506008600184611eb89190612f5d565b81548110611ec957611ec8612f91565b5b90600052602060002090600a0201600801600360006008600187611eed9190612f5d565b81548110611efe57611efd612f91565b5b90600052602060002090600a020160090160009054906101000a900473ffffffffffffffffffffffffffffffffffffffff1673ffffffffffffffffffffffffffffffffffffffff1673ffffffffffffffffffffffffffffffffffffffff168152602001908152602001600020908054611f78929190612463565b506008600184611f889190612f5d565b81548110611f9957611f98612f91565b5b90600052602060002090600a0201600801600160006008600187611fbd9190612f5d565b81548110611fce57611fcd612f91565b5b90600052602060002090600a020160090160009054906101000a900473ffffffffffffffffffffffffffffffffffffffff1673ffffffffffffffffffffffffffffffffffffffff1673ffffffffffffffffffffffffffffffffffffffff1681526020019081526020016000206000858152602001908152602001600020908054612059929190612463565b50806000803373ffffffffffffffffffffffffffffffffffffffff1673ffffffffffffffffffffffffffffffffffffffff1681526020019081526020016000206000858152602001908152602001600020819055508060086001856120be9190612f5d565b815481106120cf576120ce612f91565b5b90600052602060002090600a020160050160008282546120ef9190612f5d565b92505081905550505050565b600260205281600052604060002060205280600052604060002060009150915050805461212790612efc565b80601f016020809104026020016040519081016040528092919081815260200182805461215390612efc565b80156121a05780601f10612175576101008083540402835291602001916121a0565b820191906000526020600020905b81548152906001019060200180831161218357829003601f168201915b505050505081565b6060600160003373ffffffffffffffffffffffffffffffffffffffff1673ffffffffffffffffffffffffffffffffffffffff168152602001908152602001600020600083815260200190815260200160002080548060200260200160405190810160405280929190818152602001828054801561227a57602002820191906000526020600020905b8160009054906101000a900473ffffffffffffffffffffffffffffffffffffffff1673ffffffffffffffffffffffffffffffffffffffff1681526020019060010190808311612230575b50505050509050919050565b600160205282600052604060002060205281600052604060002081815481106122ae57600080fd5b90600052602060002001600092509250509054906101000a900473ffffffffffffffffffffffffffffffffffffffff1681565b604051806101600160405280606081526020016060815260200160608152602001600081526020016000815260200160008152602001600081526020016000815260200160608152602001600073ffffffffffffffffffffffffffffffffffffffff1681526020016000151581525090565b82805461235f90612efc565b90600052602060002090601f01602090048101928261238157600085556123c8565b82601f1061239a57805160ff19168380011785556123c8565b828001600101855582156123c8579182015b828111156123c75782518255916020019190600101906123ac565b5b5090506123d591906124b5565b5090565b828054828255906000526020600020908101928215612452579160200282015b828111156124515782518260006101000a81548173ffffffffffffffffffffffffffffffffffffffff021916908373ffffffffffffffffffffffffffffffffffffffff160217905550916020019190600101906123f9565b5b50905061245f91906124b5565b5090565b8280548282559060005260206000209081019282156124a45760005260206000209182015b828111156124a3578254825591600101919060010190612488565b5b5090506124b191906124b5565b5090565b5b808211156124ce5760008160009055506001016124b6565b5090565b600081519050919050565b600082825260208201905092915050565b6000819050602082019050919050565b600081519050919050565b600082825260208201905092915050565b60005b8381101561253857808201518184015260208101905061251d565b83811115612547576000848401525b50505050565b6000601f19601f8301169050919050565b6000612569826124fe565b6125738185612509565b935061258381856020860161251a565b61258c8161254d565b840191505092915050565b6000819050919050565b6125aa81612597565b82525050565b600081519050919050565b600082825260208201905092915050565b6000819050602082019050919050565b600073ffffffffffffffffffffffffffffffffffffffff82169050919050565b6000612607826125dc565b9050919050565b612617816125fc565b82525050565b6000612629838361260e565b60208301905092915050565b6000602082019050919050565b600061264d826125b0565b61265781856125bb565b9350612662836125cc565b8060005b8381101561269357815161267a888261261d565b975061268583612635565b925050600181019050612666565b5085935050505092915050565b60006126ab826125dc565b9050919050565b6126bb816126a0565b82525050565b60008115159050919050565b6126d6816126c1565b82525050565b60006101608301600083015184820360008601526126fa828261255e565b91505060208301518482036020860152612714828261255e565b9150506040830151848203604086015261272e828261255e565b915050606083015161274360608601826125a1565b50608083015161275660808601826125a1565b5060a083015161276960a08601826125a1565b5060c083015161277c60c08601826125a1565b5060e083015161278f60e08601826125a1565b506101008301518482036101008601526127a98282612642565b9150506101208301516127c06101208601826126b2565b506101408301516127d56101408601826126cd565b508091505092915050565b60006127ec83836126dc565b905092915050565b6000602082019050919050565b600061280c826124d2565b61281681856124dd565b935083602082028501612828856124ee565b8060005b85811015612864578484038952815161284585826127e0565b9450612850836127f4565b925060208a0199505060018101905061282c565b50829750879550505050505092915050565b600060208201905081810360008301526128908184612801565b905092915050565b6000604051905090565b600080fd5b600080fd5b6128b581612597565b81146128c057600080fd5b50565b6000813590506128d2816128ac565b92915050565b6000602082840312156128ee576128ed6128a2565b5b60006128fc848285016128c3565b91505092915050565b61290e816125fc565b811461291957600080fd5b50565b60008135905061292b81612905565b92915050565b60008060408385031215612948576129476128a2565b5b6000612956858286016128c3565b92505060206129678582860161291c565b9150509250929050565b61297a816126c1565b82525050565b60006020820190506129956000830184612971565b92915050565b600080604083850312156129b2576129b16128a2565b5b60006129c08582860161291c565b92505060206129d1858286016128c3565b9150509250929050565b6129e4816125fc565b82525050565b60006020820190506129ff60008301846129db565b92915050565b612a0e816126a0565b82525050565b6000602082019050612a296000830184612a05565b92915050565b600080fd5b600080fd5b7f4e487b7100000000000000000000000000000000000000000000000000000000600052604160045260246000fd5b612a718261254d565b810181811067ffffffffffffffff82111715612a9057612a8f612a39565b5b80604052505050565b6000612aa3612898565b9050612aaf8282612a68565b919050565b600067ffffffffffffffff821115612acf57612ace612a39565b5b612ad88261254d565b9050602081019050919050565b82818337600083830152505050565b6000612b07612b0284612ab4565b612a99565b905082815260208101848484011115612b2357612b22612a34565b5b612b2e848285612ae5565b509392505050565b600082601f830112612b4b57612b4a612a2f565b5b8135612b5b848260208601612af4565b91505092915050565b600080600080600060a08688031215612b8057612b7f6128a2565b5b600086013567ffffffffffffffff811115612b9e57612b9d6128a7565b5b612baa88828901612b36565b955050602086013567ffffffffffffffff811115612bcb57612bca6128a7565b5b612bd788828901612b36565b9450506040612be8888289016128c3565b9350506060612bf9888289016128c3565b925050608086013567ffffffffffffffff811115612c1a57612c196128a7565b5b612c2688828901612b36565b9150509295509295909350565b612c3c81612597565b82525050565b6000602082019050612c576000830184612c33565b92915050565b600082825260208201905092915050565b6000612c79826124fe565b612c838185612c5d565b9350612c9381856020860161251a565b612c9c8161254d565b840191505092915050565b6000610140820190508181036000830152612cc2818d612c6e565b90508181036020830152612cd6818c612c6e565b90508181036040830152612cea818b612c6e565b9050612cf9606083018a612c33565b612d066080830189612c33565b612d1360a0830188612c33565b612d2060c0830187612c33565b612d2d60e0830186612c33565b612d3b610100830185612a05565b612d49610120830184612971565b9b9a5050505050505050505050565b600082825260208201905092915050565b6000612d74826125b0565b612d7e8185612d58565b9350612d89836125cc565b8060005b83811015612dba578151612da1888261261d565b9750612dac83612635565b925050600181019050612d8d565b5085935050505092915050565b60006020820190508181036000830152612de18184612d69565b905092915050565b600080600060608486031215612e0257612e016128a2565b5b6000612e10868287016128c3565b935050602084013567ffffffffffffffff811115612e3157612e306128a7565b5b612e3d86828701612b36565b9250506040612e4e868287016128c3565b9150509250925092565b60006020820190508181036000830152612e728184612c6e565b905092915050565b600080600060608486031215612e9357612e926128a2565b5b6000612ea18682870161291c565b9350506020612eb2868287016128c3565b9250506040612ec3868287016128c3565b9150509250925092565b7f4e487b7100000000000000000000000000000000000000000000000000000000600052602260045260246000fd5b60006002820490506001821680612f1457607f821691505b60208210811415612f2857612f27612ecd565b5b50919050565b7f4e487b7100000000000000000000000000000000000000000000000000000000600052601160045260246000fd5b6000612f6882612597565b9150612f7383612597565b925082821015612f8657612f85612f2e565b5b828203905092915050565b7f4e487b7100000000000000000000000000000000000000000000000000000000600052603260045260246000fd5b7f4f6e6c792062757965722063616e2063616c6c20746869730000000000000000600082015250565b6000612ff6601883612c5d565b915061300182612fc0565b602082019050919050565b6000602082019050818103600083015261302581612fe9565b9050919050565b600061303782612597565b91507fffffffffffffffffffffffffffffffffffffffffffffffffffffffffffffffff82141561306a57613069612f2e565b5b600182019050919050565b7f50726963652073686f756c642062652067726561746572207468656e207a657260008201527f6f00000000000000000000000000000000000000000000000000000000000000602082015250565b60006130d1602183612c5d565b91506130dc82613075565b604082019050919050565b60006020820190508181036000830152613100816130c4565b9050919050565b600061311282612597565b915061311d83612597565b9250827fffffffffffffffffffffffffffffffffffffffffffffffffffffffffffffffff0382111561315257613151612f2e565b5b828201905092915050565b7f4f6e6c79206d616e616765722063616e2063616c6c20746869732066756e637460008201527f696f6e0000000000000000000000000000000000000000000000000000000000602082015250565b60006131b9602383612c5d565b91506131c48261315d565b604082019050919050565b600060208201905081810360008301526131e8816131ac565b9050919050565b60006131fa82612597565b915061320583612597565b9250817fffffffffffffffffffffffffffffffffffffffffffffffffffffffffffffffff048311821515161561323e5761323d612f2e565b5b828202905092915050565b7f506c656173652020706179207468652065786163742070726963650000000000600082015250565b600061327f601b83612c5d565b915061328a82613249565b602082019050919050565b600060208201905081810360008301526132ae81613272565b9050919050565b7f53656c6c6572206e6f7420626520746865206275796572000000000000000000600082015250565b60006132eb601783612c5d565b91506132f6826132b5565b602082019050919050565b6000602082019050818103600083015261331a816132de565b9050919050565b7f506c656173652073656c65637420686f77206d616e792070726f64756374732060008201527f796f752077616e7420746f206275790000000000000000000000000000000000602082015250565b600061337d602f83612c5d565b915061338882613321565b604082019050919050565b600060208201905081810360008301526133ac81613370565b9050919050565b7f596f75207265616368207468652070726f6475637427732073746f636b206c6960008201527f6d69740000000000000000000000000000000000000000000000000000000000602082015250565b600061340f602383612c5d565b915061341a826133b3565b604082019050919050565b6000602082019050818103600083015261343e81613402565b905091905056fea264697066735822122030f864cff6605f759b08d1d0e9354666c87a4c846dd634ffcdb2af18e7a16c7864736f6c63430008090033",
  "linkReferences": {},
  "deployedLinkReferences": {}
}