{
  "_format": "hh-sol-artifact-1",
  "contractName": "Ecommarce",
  "sourceName": "contracts/Ecommarce.sol",
  "abi": [
    {
      "inputs": [],
      "stateMutability": "nonpayable",
      "type": "constructor"
    },
    {
      "inputs": [
        {
          "internalType": "uint256",
          "name": "_productId",
          "type": "uint256"
        },
        {
          "internalType": "address payable",
          "name": "_buyer",
          "type": "address"
        }
      ],
      "name": "OrderCancel",
      "outputs": [],
      "stateMutability": "nonpayable",
      "type": "function"
    },
    {
      "inputs": [
        {
          "internalType": "uint256",
          "name": "_productId",
          "type": "uint256"
        },
        {
          "internalType": "string",
          "name": "_deliveryAddress",
          "type": "string"
        },
        {
          "internalType": "uint256",
          "name": "_numberOfProducts",
          "type": "uint256"
        }
      ],
      "name": "buy",
      "outputs": [],
      "stateMutability": "payable",
      "type": "function"
    },
    {
      "inputs": [
        {
          "internalType": "uint256",
          "name": "_productId",
          "type": "uint256"
        }
      ],
      "name": "delivery",
      "outputs": [],
      "stateMutability": "payable",
      "type": "function"
    },
    {
      "inputs": [
        {
          "internalType": "address",
          "name": "",
          "type": "address"
        }
      ],
      "name": "deliveryLocation",
      "outputs": [
        {
          "internalType": "string",
          "name": "",
          "type": "string"
        }
      ],
      "stateMutability": "view",
      "type": "function"
    },
    {
      "inputs": [],
      "name": "endAt",
      "outputs": [
        {
          "internalType": "uint256",
          "name": "",
          "type": "uint256"
        }
      ],
      "stateMutability": "view",
      "type": "function"
    },
    {
      "inputs": [],
      "name": "getAllProducts",
      "outputs": [
        {
          "components": [
            {
              "internalType": "string",
              "name": "title",
              "type": "string"
            },
            {
              "internalType": "string",
              "name": "desc",
              "type": "string"
            },
            {
              "internalType": "string",
              "name": "img",
              "type": "string"
            },
            {
              "internalType": "uint256",
              "name": "price",
              "type": "uint256"
            },
            {
              "internalType": "uint256",
              "name": "productId",
              "type": "uint256"
            },
            {
              "internalType": "uint256",
              "name": "stocks",
              "type": "uint256"
            },
            {
              "internalType": "uint256",
              "name": "deliveryStart",
              "type": "uint256"
            },
            {
              "internalType": "uint256",
              "name": "deliveryEnd",
              "type": "uint256"
            },
            {
              "internalType": "address[]",
              "name": "buyer",
              "type": "address[]"
            },
            {
              "internalType": "address payable",
              "name": "seller",
              "type": "address"
            },
            {
              "internalType": "bool",
              "name": "delevered",
              "type": "bool"
            }
          ],
          "internalType": "struct Ecommarce.Product[]",
          "name": "",
          "type": "tuple[]"
        }
      ],
      "stateMutability": "view",
      "type": "function"
    },
    {
      "inputs": [],
      "name": "listPrice",
      "outputs": [
        {
          "internalType": "uint256",
          "name": "",
          "type": "uint256"
        }
      ],
      "stateMutability": "view",
      "type": "function"
    },
    {
      "inputs": [],
      "name": "manager",
      "outputs": [
        {
          "internalType": "address payable",
          "name": "",
          "type": "address"
        }
      ],
      "stateMutability": "view",
      "type": "function"
    },
    {
      "inputs": [
        {
          "internalType": "address",
          "name": "",
          "type": "address"
        },
        {
          "internalType": "uint256",
          "name": "",
          "type": "uint256"
        }
      ],
      "name": "myCustomers",
      "outputs": [
        {
          "internalType": "address",
          "name": "",
          "type": "address"
        }
      ],
      "stateMutability": "view",
      "type": "function"
    },
    {
      "inputs": [
        {
          "internalType": "uint256",
          "name": "",
          "type": "uint256"
        }
      ],
      "name": "myProducts",
      "outputs": [
        {
          "internalType": "string",
          "name": "title",
          "type": "string"
        },
        {
          "internalType": "string",
          "name": "desc",
          "type": "string"
        },
        {
          "internalType": "string",
          "name": "img",
          "type": "string"
        },
        {
          "internalType": "uint256",
          "name": "price",
          "type": "uint256"
        },
        {
          "internalType": "uint256",
          "name": "productId",
          "type": "uint256"
        },
        {
          "internalType": "uint256",
          "name": "stocks",
          "type": "uint256"
        },
        {
          "internalType": "uint256",
          "name": "deliveryStart",
          "type": "uint256"
        },
        {
          "internalType": "uint256",
          "name": "deliveryEnd",
          "type": "uint256"
        },
        {
          "internalType": "address payable",
          "name": "seller",
          "type": "address"
        },
        {
          "internalType": "bool",
          "name": "delevered",
          "type": "bool"
        }
      ],
      "stateMutability": "view",
      "type": "function"
    },
    {
      "inputs": [
        {
          "internalType": "uint256",
          "name": "",
          "type": "uint256"
        }
      ],
      "name": "products",
      "outputs": [
        {
          "internalType": "string",
          "name": "title",
          "type": "string"
        },
        {
          "internalType": "string",
          "name": "desc",
          "type": "string"
        },
        {
          "internalType": "string",
          "name": "img",
          "type": "string"
        },
        {
          "internalType": "uint256",
          "name": "price",
          "type": "uint256"
        },
        {
          "internalType": "uint256",
          "name": "productId",
          "type": "uint256"
        },
        {
          "internalType": "uint256",
          "name": "stocks",
          "type": "uint256"
        },
        {
          "internalType": "uint256",
          "name": "deliveryStart",
          "type": "uint256"
        },
        {
          "internalType": "uint256",
          "name": "deliveryEnd",
          "type": "uint256"
        },
        {
          "internalType": "address payable",
          "name": "seller",
          "type": "address"
        },
        {
          "internalType": "bool",
          "name": "delevered",
          "type": "bool"
        }
      ],
      "stateMutability": "view",
      "type": "function"
    },
    {
      "inputs": [
        {
          "internalType": "address",
          "name": "",
          "type": "address"
        },
        {
          "internalType": "uint256",
          "name": "",
          "type": "uint256"
        }
      ],
      "name": "productsNumber",
      "outputs": [
        {
          "internalType": "uint256",
          "name": "",
          "type": "uint256"
        }
      ],
      "stateMutability": "view",
      "type": "function"
    },
    {
      "inputs": [
        {
          "internalType": "string",
          "name": "_title",
          "type": "string"
        },
        {
          "internalType": "string",
          "name": "_desc",
          "type": "string"
        },
        {
          "internalType": "uint256",
          "name": "_price",
          "type": "uint256"
        },
        {
          "internalType": "uint256",
          "name": "_stocks",
          "type": "uint256"
        },
        {
          "internalType": "string",
          "name": "_img",
          "type": "string"
        }
      ],
      "name": "registerProduct",
      "outputs": [],
      "stateMutability": "payable",
      "type": "function"
    },
    {
      "inputs": [
        {
          "internalType": "address",
          "name": "_address",
          "type": "address"
        }
      ],
      "name": "showMyProducts",
      "outputs": [],
      "stateMutability": "nonpayable",
      "type": "function"
    },
    {
      "inputs": [
        {
          "internalType": "uint256",
          "name": "_productId",
          "type": "uint256"
        }
      ],
      "name": "showStockOfProduct",
      "outputs": [
        {
          "internalType": "uint256",
          "name": "",
          "type": "uint256"
        }
      ],
      "stateMutability": "view",
      "type": "function"
    },
    {
      "inputs": [
        {
          "internalType": "uint256",
          "name": "_day",
          "type": "uint256"
        }
      ],
      "name": "updateDeliveryDays",
      "outputs": [],
      "stateMutability": "nonpayable",
      "type": "function"
    }
  ],
  "bytecode": "0x608060405260016005556000600860146101000a81548160ff02191690831515021790555034801561003057600080fd5b5033600860006101000a81548173ffffffffffffffffffffffffffffffffffffffff021916908373ffffffffffffffffffffffffffffffffffffffff160217905550662386f26fc1000060048190555062093a806003819055506132bb806100996000396000f3fe6080604052600436106100f35760003560e01c80636eb588d91161008a5780638b943c50116100595780638b943c5014610334578063a7157b1714610371578063cc47f8bd1461039a578063cec02c8f146103d7576100f3565b80636eb588d91461026f5780637acc0b201461029a5780637cc3ae8c146102e05780637f4ed9a81461030b576100f3565b806330c07aee116100c657806330c07aee146101a5578063481c6a75146101e257806357a9666e1461020d5780635cece25f14610229576100f3565b806302ee3a52146100f85780631144fd721461012357806313c21b781461013f5780632cf8e48e14610168575b600080fd5b34801561010457600080fd5b5061010d6103f3565b60405161011a919061269b565b60405180910390f35b61013d600480360381019061013891906126fd565b61073a565b005b34801561014b57600080fd5b5061016660048036038101906101619190612756565b610910565b005b34801561017457600080fd5b5061018f600480360381019061018a9190612756565b610ba0565b60405161019c91906127cd565b60405180910390f35b3480156101b157600080fd5b506101cc60048036038101906101c791906127ef565b610c40565b6040516101d9919061283e565b60405180910390f35b3480156101ee57600080fd5b506101f7610c8e565b6040516102049190612868565b60405180910390f35b610227600480360381019061022291906129b8565b610cb4565b005b34801561023557600080fd5b50610250600480360381019061024b91906126fd565b610f05565b6040516102669a99989796959493929190612aa5565b60405180910390f35b34801561027b57600080fd5b5061028461112e565b6040516102919190612b56565b60405180910390f35b3480156102a657600080fd5b506102c160048036038101906102bc91906126fd565b611134565b6040516102d79a99989796959493929190612aa5565b60405180910390f35b3480156102ec57600080fd5b506102f561135d565b6040516103029190612b56565b60405180910390f35b34801561031757600080fd5b50610332600480360381019061032d91906126fd565b611363565b005b34801561034057600080fd5b5061035b600480360381019061035691906127ef565b6113fd565b6040516103689190612b56565b60405180910390f35b34801561037d57600080fd5b5061039860048036038101906103939190612b9d565b611422565b005b3480156103a657600080fd5b506103c160048036038101906103bc91906126fd565b611ba0565b6040516103ce9190612b56565b60405180910390f35b6103f160048036038101906103ec9190612bdd565b611bdb565b005b60606006805480602002602001604051908101604052809291908181526020016000905b8282101561073157838290600052602060002090600a02016040518061016001604052908160008201805461044b90612c7b565b80601f016020809104026020016040519081016040528092919081815260200182805461047790612c7b565b80156104c45780601f10610499576101008083540402835291602001916104c4565b820191906000526020600020905b8154815290600101906020018083116104a757829003601f168201915b505050505081526020016001820180546104dd90612c7b565b80601f016020809104026020016040519081016040528092919081815260200182805461050990612c7b565b80156105565780601f1061052b57610100808354040283529160200191610556565b820191906000526020600020905b81548152906001019060200180831161053957829003601f168201915b5050505050815260200160028201805461056f90612c7b565b80601f016020809104026020016040519081016040528092919081815260200182805461059b90612c7b565b80156105e85780601f106105bd576101008083540402835291602001916105e8565b820191906000526020600020905b8154815290600101906020018083116105cb57829003601f168201915b505050505081526020016003820154815260200160048201548152602001600582015481526020016006820154815260200160078201548152602001600882018054806020026020016040519081016040528092919081815260200182805480156106a857602002820191906000526020600020905b8160009054906101000a900473ffffffffffffffffffffffffffffffffffffffff1673ffffffffffffffffffffffffffffffffffffffff168152602001906001019080831161065e575b505050505081526020016009820160009054906101000a900473ffffffffffffffffffffffffffffffffffffffff1673ffffffffffffffffffffffffffffffffffffffff1673ffffffffffffffffffffffffffffffffffffffff1681526020016009820160149054906101000a900460ff16151515158152505081526020019060010190610417565b50505050905090565b3373ffffffffffffffffffffffffffffffffffffffff1660066001836107609190612cdc565b8154811061077157610770612d10565b5b90600052602060002090600a020160090160009054906101000a900473ffffffffffffffffffffffffffffffffffffffff1673ffffffffffffffffffffffffffffffffffffffff1614156107fa576040517f08c379a00000000000000000000000000000000000000000000000000000000081526004016107f190612d8b565b60405180910390fd5b6001600660018361080b9190612cdc565b8154811061081c5761081b612d10565b5b90600052602060002090600a020160090160146101000a81548160ff02191690831515021790555060066001826108539190612cdc565b8154811061086457610863612d10565b5b90600052602060002090600a020160090160009054906101000a900473ffffffffffffffffffffffffffffffffffffffff1673ffffffffffffffffffffffffffffffffffffffff166108fc60066001846108be9190612cdc565b815481106108cf576108ce612d10565b5b90600052602060002090600a0201600301549081150290604051600060405180830381858888f1935050505015801561090c573d6000803e3d6000fd5b5050565b60005b600680549050811015610b9c5760005b6006828154811061093757610936612d10565b5b90600052602060002090600a020160080180549050811015610b88578273ffffffffffffffffffffffffffffffffffffffff166006838154811061097e5761097d612d10565b5b90600052602060002090600a020160080182815481106109a1576109a0612d10565b5b9060005260206000200160009054906101000a900473ffffffffffffffffffffffffffffffffffffffff1673ffffffffffffffffffffffffffffffffffffffff161415610b75576007600683815481106109fe576109fd612d10565b5b90600052602060002090600a020190806001815401808255809150506001900390600052602060002090600a02016000909190919091506000820181600001908054610a4990612c7b565b610a54929190612027565b506001820181600101908054610a6990612c7b565b610a74929190612027565b506002820181600201908054610a8990612c7b565b610a94929190612027565b5060038201548160030155600482015481600401556005820154816005015560068201548160060155600782015481600701556008820181600801908054610add9291906120b4565b506009820160009054906101000a900473ffffffffffffffffffffffffffffffffffffffff168160090160006101000a81548173ffffffffffffffffffffffffffffffffffffffff021916908373ffffffffffffffffffffffffffffffffffffffff1602179055506009820160149054906101000a900460ff168160090160146101000a81548160ff02191690831515021790555050505b8080610b8090612dab565b915050610923565b508080610b9490612dab565b915050610913565b5050565b60016020528060005260406000206000915090508054610bbf90612c7b565b80601f0160208091040260200160405190810160405280929190818152602001828054610beb90612c7b565b8015610c385780601f10610c0d57610100808354040283529160200191610c38565b820191906000526020600020905b815481529060010190602001808311610c1b57829003601f168201915b505050505081565b60026020528160005260406000208181548110610c5c57600080fd5b906000526020600020016000915091509054906101000a900473ffffffffffffffffffffffffffffffffffffffff1681565b600860009054906101000a900473ffffffffffffffffffffffffffffffffffffffff1681565b60008311610cf7576040517f08c379a0000000000000000000000000000000000000000000000000000000008152600401610cee90612e66565b60405180910390fd5b610cff612106565b858160000181905250848160200181905250818160400181905250670de0b6b3a764000084610d2e9190612e86565b816060018181525050828160a00181815250503381610120019073ffffffffffffffffffffffffffffffffffffffff16908173ffffffffffffffffffffffffffffffffffffffff1681525050600554816080018181525050428160c001818152505060035442610d9e9190612ee0565b8160e001818152505060068190806001815401808255809150506001900390600052602060002090600a02016000909190919091506000820151816000019080519060200190610def929190612178565b506020820151816001019080519060200190610e0c929190612178565b506040820151816002019080519060200190610e29929190612178565b50606082015181600301556080820151816004015560a0820151816005015560c0820151816006015560e08201518160070155610100820151816008019080519060200190610e799291906121fe565b506101208201518160090160006101000a81548173ffffffffffffffffffffffffffffffffffffffff021916908373ffffffffffffffffffffffffffffffffffffffff1602179055506101408201518160090160146101000a81548160ff021916908315150217905550505060056000815480929190610ef890612dab565b9190505550505050505050565b60078181548110610f1557600080fd5b90600052602060002090600a0201600091509050806000018054610f3890612c7b565b80601f0160208091040260200160405190810160405280929190818152602001828054610f6490612c7b565b8015610fb15780601f10610f8657610100808354040283529160200191610fb1565b820191906000526020600020905b815481529060010190602001808311610f9457829003601f168201915b505050505090806001018054610fc690612c7b565b80601f0160208091040260200160405190810160405280929190818152602001828054610ff290612c7b565b801561103f5780601f106110145761010080835404028352916020019161103f565b820191906000526020600020905b81548152906001019060200180831161102257829003601f168201915b50505050509080600201805461105490612c7b565b80601f016020809104026020016040519081016040528092919081815260200182805461108090612c7b565b80156110cd5780601f106110a2576101008083540402835291602001916110cd565b820191906000526020600020905b8154815290600101906020018083116110b057829003601f168201915b5050505050908060030154908060040154908060050154908060060154908060070154908060090160009054906101000a900473ffffffffffffffffffffffffffffffffffffffff16908060090160149054906101000a900460ff1690508a565b60045481565b6006818154811061114457600080fd5b90600052602060002090600a020160009150905080600001805461116790612c7b565b80601f016020809104026020016040519081016040528092919081815260200182805461119390612c7b565b80156111e05780601f106111b5576101008083540402835291602001916111e0565b820191906000526020600020905b8154815290600101906020018083116111c357829003601f168201915b5050505050908060010180546111f590612c7b565b80601f016020809104026020016040519081016040528092919081815260200182805461122190612c7b565b801561126e5780601f106112435761010080835404028352916020019161126e565b820191906000526020600020905b81548152906001019060200180831161125157829003601f168201915b50505050509080600201805461128390612c7b565b80601f01602080910402602001604051908101604052809291908181526020018280546112af90612c7b565b80156112fc5780601f106112d1576101008083540402835291602001916112fc565b820191906000526020600020905b8154815290600101906020018083116112df57829003601f168201915b5050505050908060030154908060040154908060050154908060060154908060070154908060090160009054906101000a900473ffffffffffffffffffffffffffffffffffffffff16908060090160149054906101000a900460ff1690508a565b60035481565b600860009054906101000a900473ffffffffffffffffffffffffffffffffffffffff1673ffffffffffffffffffffffffffffffffffffffff163373ffffffffffffffffffffffffffffffffffffffff16146113f3576040517f08c379a00000000000000000000000000000000000000000000000000000000081526004016113ea90612fa8565b60405180910390fd5b8060038190555050565b6000602052816000526040600020602052806000526040600020600091509150505481565b3373ffffffffffffffffffffffffffffffffffffffff1660066001846114489190612cdc565b8154811061145957611458612d10565b5b90600052602060002090600a020160090160009054906101000a900473ffffffffffffffffffffffffffffffffffffffff1673ffffffffffffffffffffffffffffffffffffffff1614156114e2576040517f08c379a00000000000000000000000000000000000000000000000000000000081526004016114d99061303a565b60405180910390fd5b8073ffffffffffffffffffffffffffffffffffffffff166108fc600660018561150b9190612cdc565b8154811061151c5761151b612d10565b5b90600052602060002090600a0201600301549081150290604051600060405180830381858888f19350505050158015611559573d6000803e3d6000fd5b506000803373ffffffffffffffffffffffffffffffffffffffff1673ffffffffffffffffffffffffffffffffffffffff16815260200190815260200160002060008381526020019081526020016000205460066001846115b99190612cdc565b815481106115ca576115c9612d10565b5b90600052602060002090600a020160050160008282546115ea9190612ee0565b9250508190555060005b6002600060066001866116079190612cdc565b8154811061161857611617612d10565b5b90600052602060002090600a020160090160009054906101000a900473ffffffffffffffffffffffffffffffffffffffff1673ffffffffffffffffffffffffffffffffffffffff1673ffffffffffffffffffffffffffffffffffffffff16815260200190815260200160002080549050811015611b9b576002600060066001866116a29190612cdc565b815481106116b3576116b2612d10565b5b90600052602060002090600a020160090160009054906101000a900473ffffffffffffffffffffffffffffffffffffffff1673ffffffffffffffffffffffffffffffffffffffff1673ffffffffffffffffffffffffffffffffffffffff168152602001908152602001600020818154811061173157611730612d10565b5b9060005260206000200160009054906101000a900473ffffffffffffffffffffffffffffffffffffffff1673ffffffffffffffffffffffffffffffffffffffff168273ffffffffffffffffffffffffffffffffffffffff161415611b88576002600060066001866117a29190612cdc565b815481106117b3576117b2612d10565b5b90600052602060002090600a020160090160009054906101000a900473ffffffffffffffffffffffffffffffffffffffff1673ffffffffffffffffffffffffffffffffffffffff1673ffffffffffffffffffffffffffffffffffffffff16815260200190815260200160002080549050811061182e57600080fd5b60008190505b60016002600060066001886118499190612cdc565b8154811061185a57611859612d10565b5b90600052602060002090600a020160090160009054906101000a900473ffffffffffffffffffffffffffffffffffffffff1673ffffffffffffffffffffffffffffffffffffffff1673ffffffffffffffffffffffffffffffffffffffff168152602001908152602001600020805490506118d49190612cdc565b811015611ab1576002600060066001876118ee9190612cdc565b815481106118ff576118fe612d10565b5b90600052602060002090600a020160090160009054906101000a900473ffffffffffffffffffffffffffffffffffffffff1673ffffffffffffffffffffffffffffffffffffffff1673ffffffffffffffffffffffffffffffffffffffff1681526020019081526020016000206001826119789190612ee0565b8154811061198957611988612d10565b5b9060005260206000200160009054906101000a900473ffffffffffffffffffffffffffffffffffffffff166002600060066001886119c79190612cdc565b815481106119d8576119d7612d10565b5b90600052602060002090600a020160090160009054906101000a900473ffffffffffffffffffffffffffffffffffffffff1673ffffffffffffffffffffffffffffffffffffffff1673ffffffffffffffffffffffffffffffffffffffff1681526020019081526020016000208281548110611a5657611a55612d10565b5b9060005260206000200160006101000a81548173ffffffffffffffffffffffffffffffffffffffff021916908373ffffffffffffffffffffffffffffffffffffffff1602179055508080611aa990612dab565b915050611834565b50600260006006600186611ac59190612cdc565b81548110611ad657611ad5612d10565b5b90600052602060002090600a020160090160009054906101000a900473ffffffffffffffffffffffffffffffffffffffff1673ffffffffffffffffffffffffffffffffffffffff1673ffffffffffffffffffffffffffffffffffffffff168152602001908152602001600020805480611b5257611b5161305a565b5b6001900381819060005260206000200160006101000a81549073ffffffffffffffffffffffffffffffffffffffff021916905590555b8080611b9390612dab565b9150506115f4565b505050565b60006006600183611bb19190612cdc565b81548110611bc257611bc1612d10565b5b90600052602060002090600a0201600501549050919050565b34816006600186611bec9190612cdc565b81548110611bfd57611bfc612d10565b5b90600052602060002090600a020160030154611c199190612e86565b14611c59576040517f08c379a0000000000000000000000000000000000000000000000000000000008152600401611c50906130d5565b60405180910390fd5b3373ffffffffffffffffffffffffffffffffffffffff166006600185611c7f9190612cdc565b81548110611c9057611c8f612d10565b5b90600052602060002090600a020160090160009054906101000a900473ffffffffffffffffffffffffffffffffffffffff1673ffffffffffffffffffffffffffffffffffffffff161415611d19576040517f08c379a0000000000000000000000000000000000000000000000000000000008152600401611d1090613141565b60405180910390fd5b60008111611d5c576040517f08c379a0000000000000000000000000000000000000000000000000000000008152600401611d53906131d3565b60405180910390fd5b6006600184611d6b9190612cdc565b81548110611d7c57611d7b612d10565b5b90600052602060002090600a020160050154811115611dd0576040517f08c379a0000000000000000000000000000000000000000000000000000000008152600401611dc790613265565b60405180910390fd5b6006600184611ddf9190612cdc565b81548110611df057611def612d10565b5b90600052602060002090600a0201600801339080600181540180825580915050600190039060005260206000200160009091909190916101000a81548173ffffffffffffffffffffffffffffffffffffffff021916908373ffffffffffffffffffffffffffffffffffffffff16021790555081600160003373ffffffffffffffffffffffffffffffffffffffff1673ffffffffffffffffffffffffffffffffffffffff1681526020019081526020016000209080519060200190611eb5929190612178565b506006600184611ec59190612cdc565b81548110611ed657611ed5612d10565b5b90600052602060002090600a0201600801600260006006600187611efa9190612cdc565b81548110611f0b57611f0a612d10565b5b90600052602060002090600a020160090160009054906101000a900473ffffffffffffffffffffffffffffffffffffffff1673ffffffffffffffffffffffffffffffffffffffff1673ffffffffffffffffffffffffffffffffffffffff168152602001908152602001600020908054611f85929190612288565b50806000803373ffffffffffffffffffffffffffffffffffffffff1673ffffffffffffffffffffffffffffffffffffffff168152602001908152602001600020600085815260200190815260200160002081905550806006600185611fea9190612cdc565b81548110611ffb57611ffa612d10565b5b90600052602060002090600a0201600501600082825461201b9190612cdc565b92505081905550505050565b82805461203390612c7b565b90600052602060002090601f01602090048101928261205557600085556120a3565b82601f1061206657805485556120a3565b828001600101855582156120a357600052602060002091601f016020900482015b828111156120a2578254825591600101919060010190612087565b5b5090506120b091906122da565b5090565b8280548282559060005260206000209081019282156120f55760005260206000209182015b828111156120f45782548255916001019190600101906120d9565b5b50905061210291906122da565b5090565b604051806101600160405280606081526020016060815260200160608152602001600081526020016000815260200160008152602001600081526020016000815260200160608152602001600073ffffffffffffffffffffffffffffffffffffffff1681526020016000151581525090565b82805461218490612c7b565b90600052602060002090601f0160209004810192826121a657600085556121ed565b82601f106121bf57805160ff19168380011785556121ed565b828001600101855582156121ed579182015b828111156121ec5782518255916020019190600101906121d1565b5b5090506121fa91906122da565b5090565b828054828255906000526020600020908101928215612277579160200282015b828111156122765782518260006101000a81548173ffffffffffffffffffffffffffffffffffffffff021916908373ffffffffffffffffffffffffffffffffffffffff1602179055509160200191906001019061221e565b5b50905061228491906122da565b5090565b8280548282559060005260206000209081019282156122c95760005260206000209182015b828111156122c85782548255916001019190600101906122ad565b5b5090506122d691906122da565b5090565b5b808211156122f35760008160009055506001016122db565b5090565b600081519050919050565b600082825260208201905092915050565b6000819050602082019050919050565b600081519050919050565b600082825260208201905092915050565b60005b8381101561235d578082015181840152602081019050612342565b8381111561236c576000848401525b50505050565b6000601f19601f8301169050919050565b600061238e82612323565b612398818561232e565b93506123a881856020860161233f565b6123b181612372565b840191505092915050565b6000819050919050565b6123cf816123bc565b82525050565b600081519050919050565b600082825260208201905092915050565b6000819050602082019050919050565b600073ffffffffffffffffffffffffffffffffffffffff82169050919050565b600061242c82612401565b9050919050565b61243c81612421565b82525050565b600061244e8383612433565b60208301905092915050565b6000602082019050919050565b6000612472826123d5565b61247c81856123e0565b9350612487836123f1565b8060005b838110156124b857815161249f8882612442565b97506124aa8361245a565b92505060018101905061248b565b5085935050505092915050565b60006124d082612401565b9050919050565b6124e0816124c5565b82525050565b60008115159050919050565b6124fb816124e6565b82525050565b600061016083016000830151848203600086015261251f8282612383565b915050602083015184820360208601526125398282612383565b915050604083015184820360408601526125538282612383565b915050606083015161256860608601826123c6565b50608083015161257b60808601826123c6565b5060a083015161258e60a08601826123c6565b5060c08301516125a160c08601826123c6565b5060e08301516125b460e08601826123c6565b506101008301518482036101008601526125ce8282612467565b9150506101208301516125e56101208601826124d7565b506101408301516125fa6101408601826124f2565b508091505092915050565b60006126118383612501565b905092915050565b6000602082019050919050565b6000612631826122f7565b61263b8185612302565b93508360208202850161264d85612313565b8060005b85811015612689578484038952815161266a8582612605565b945061267583612619565b925060208a01995050600181019050612651565b50829750879550505050505092915050565b600060208201905081810360008301526126b58184612626565b905092915050565b6000604051905090565b600080fd5b600080fd5b6126da816123bc565b81146126e557600080fd5b50565b6000813590506126f7816126d1565b92915050565b600060208284031215612713576127126126c7565b5b6000612721848285016126e8565b91505092915050565b61273381612421565b811461273e57600080fd5b50565b6000813590506127508161272a565b92915050565b60006020828403121561276c5761276b6126c7565b5b600061277a84828501612741565b91505092915050565b600082825260208201905092915050565b600061279f82612323565b6127a98185612783565b93506127b981856020860161233f565b6127c281612372565b840191505092915050565b600060208201905081810360008301526127e78184612794565b905092915050565b60008060408385031215612806576128056126c7565b5b600061281485828601612741565b9250506020612825858286016126e8565b9150509250929050565b61283881612421565b82525050565b6000602082019050612853600083018461282f565b92915050565b612862816124c5565b82525050565b600060208201905061287d6000830184612859565b92915050565b600080fd5b600080fd5b7f4e487b7100000000000000000000000000000000000000000000000000000000600052604160045260246000fd5b6128c582612372565b810181811067ffffffffffffffff821117156128e4576128e361288d565b5b80604052505050565b60006128f76126bd565b905061290382826128bc565b919050565b600067ffffffffffffffff8211156129235761292261288d565b5b61292c82612372565b9050602081019050919050565b82818337600083830152505050565b600061295b61295684612908565b6128ed565b90508281526020810184848401111561297757612976612888565b5b612982848285612939565b509392505050565b600082601f83011261299f5761299e612883565b5b81356129af848260208601612948565b91505092915050565b600080600080600060a086880312156129d4576129d36126c7565b5b600086013567ffffffffffffffff8111156129f2576129f16126cc565b5b6129fe8882890161298a565b955050602086013567ffffffffffffffff811115612a1f57612a1e6126cc565b5b612a2b8882890161298a565b9450506040612a3c888289016126e8565b9350506060612a4d888289016126e8565b925050608086013567ffffffffffffffff811115612a6e57612a6d6126cc565b5b612a7a8882890161298a565b9150509295509295909350565b612a90816123bc565b82525050565b612a9f816124e6565b82525050565b6000610140820190508181036000830152612ac0818d612794565b90508181036020830152612ad4818c612794565b90508181036040830152612ae8818b612794565b9050612af7606083018a612a87565b612b046080830189612a87565b612b1160a0830188612a87565b612b1e60c0830187612a87565b612b2b60e0830186612a87565b612b39610100830185612859565b612b47610120830184612a96565b9b9a5050505050505050505050565b6000602082019050612b6b6000830184612a87565b92915050565b612b7a816124c5565b8114612b8557600080fd5b50565b600081359050612b9781612b71565b92915050565b60008060408385031215612bb457612bb36126c7565b5b6000612bc2858286016126e8565b9250506020612bd385828601612b88565b9150509250929050565b600080600060608486031215612bf657612bf56126c7565b5b6000612c04868287016126e8565b935050602084013567ffffffffffffffff811115612c2557612c246126cc565b5b612c318682870161298a565b9250506040612c42868287016126e8565b9150509250925092565b7f4e487b7100000000000000000000000000000000000000000000000000000000600052602260045260246000fd5b60006002820490506001821680612c9357607f821691505b60208210811415612ca757612ca6612c4c565b5b50919050565b7f4e487b7100000000000000000000000000000000000000000000000000000000600052601160045260246000fd5b6000612ce7826123bc565b9150612cf2836123bc565b925082821015612d0557612d04612cad565b5b828203905092915050565b7f4e487b7100000000000000000000000000000000000000000000000000000000600052603260045260246000fd5b7f4f6e6c792062757965722063616e2063616c6c20746869730000000000000000600082015250565b6000612d75601883612783565b9150612d8082612d3f565b602082019050919050565b60006020820190508181036000830152612da481612d68565b9050919050565b6000612db6826123bc565b91507fffffffffffffffffffffffffffffffffffffffffffffffffffffffffffffffff821415612de957612de8612cad565b5b600182019050919050565b7f50726963652073686f756c642062652067726561746572207468656e207a657260008201527f6f00000000000000000000000000000000000000000000000000000000000000602082015250565b6000612e50602183612783565b9150612e5b82612df4565b604082019050919050565b60006020820190508181036000830152612e7f81612e43565b9050919050565b6000612e91826123bc565b9150612e9c836123bc565b9250817fffffffffffffffffffffffffffffffffffffffffffffffffffffffffffffffff0483118215151615612ed557612ed4612cad565b5b828202905092915050565b6000612eeb826123bc565b9150612ef6836123bc565b9250827fffffffffffffffffffffffffffffffffffffffffffffffffffffffffffffffff03821115612f2b57612f2a612cad565b5b828201905092915050565b7f4f6e6c79206d616e616765722063616e2063616c6c20746869732066756e637460008201527f696f6e0000000000000000000000000000000000000000000000000000000000602082015250565b6000612f92602383612783565b9150612f9d82612f36565b604082019050919050565b60006020820190508181036000830152612fc181612f85565b9050919050565b7f53656c6c65722063616e27742063616e63656c6c20746865206f72646572656460008201527f2070726f64756374000000000000000000000000000000000000000000000000602082015250565b6000613024602883612783565b915061302f82612fc8565b604082019050919050565b6000602082019050818103600083015261305381613017565b9050919050565b7f4e487b7100000000000000000000000000000000000000000000000000000000600052603160045260246000fd5b7f506c656173652020706179207468652065786163742070726963650000000000600082015250565b60006130bf601b83612783565b91506130ca82613089565b602082019050919050565b600060208201905081810360008301526130ee816130b2565b9050919050565b7f53656c6c6572206e6f7420626520746865206275796572000000000000000000600082015250565b600061312b601783612783565b9150613136826130f5565b602082019050919050565b6000602082019050818103600083015261315a8161311e565b9050919050565b7f506c656173652073656c65637420686f77206d616e792070726f64756374732060008201527f796f752077616e7420746f206275790000000000000000000000000000000000602082015250565b60006131bd602f83612783565b91506131c882613161565b604082019050919050565b600060208201905081810360008301526131ec816131b0565b9050919050565b7f596f75207265616368207468652070726f6475637427732073746f636b206c6960008201527f6d69740000000000000000000000000000000000000000000000000000000000602082015250565b600061324f602383612783565b915061325a826131f3565b604082019050919050565b6000602082019050818103600083015261327e81613242565b905091905056fea26469706673582212201f7e09a31bb7ac14fc755c22cf5f0dea681cb25a40e3c06e007c0672332dd3c964736f6c63430008090033",
  "linkReferences": {},
  "deployedLinkReferences": {}
}